:1000000012C02CC02BC02AC029C028C07EC426C064
:1000100025C01CC323C00DC643C620C01FC01EC0C0
:100020001DC01CC01BC011241FBECFE5D4E0DEBF25
:10003000CDBF10E0A0E6B0E0E4EDFDE002C0059029
:100040000D92A436B107D9F713E0A4E6B0E001C0E1
:100050001D92A33FB107E1F704D5BAC6D1CF84B34F
:10006000806384BB0895AC9A28EE33E040E951E008
:10007000CA010197F1F721503040D1F7AC9828EE32
:1000800033E040E951E0CA010197F1F721503040D7
:10009000D1F7AC9A28EE33E040E951E0CA0101976C
:1000A000F1F721503040D1F7AC980895AC9A28EE82
:1000B00033E040E951E0CA010197F1F721503040A7
:1000C000D1F7AC9828EE33E040E951E0CA0101973E
:1000D000F1F721503040D1F70895AC9AAC980895CB
:1000E000AD9AAD980895AD9A28EE33E040E951E01D
:1000F000CA010197F1F721503040D1F7AD9828EEB1
:1001000033E040E951E0CA010197F1F72150304056
:10011000D1F7AD9A28EE33E040E951E0CA010197EA
:10012000F1F721503040D1F7AD9828EE33E040E9A7
:1001300051E0CA010197F1F721503040D1F70895FD
:10014000AD9A28EE33E040E951E0CA010197F1F79A
:1001500021503040D1F7AD9828EE33E040E951E02E
:10016000CA010197F1F721503040D1F70895AD9AB7
:100170000895AD980895AC9A0895AC980895FC013F
:1001800010827583648373836283418347834683CC
:100190000895FC01908181819817A0F4A481B58114
:1001A0006D938781815019F48181A81BB1098783E0
:1001B000B583A4839FB7F89480818F5F80839FBFAE
:1001C00081E0089580E00895FC0180818823E9F3AF
:1001D000A281B3812D918681815019F48181A81B60
:1001E000B109B383A28386839FB7F894808181503D
:1001F00080839FBF822F0895FC0180818823B1F006
:10020000A281B3812D918681815061F0B383A28355
:1002100086839FB7F8948081815080839FBF30E0B0
:10022000C90108958181A81BB109F0CF2FEF3FEFDD
:10023000C9010895FC01808108951F93BC01DC0170
:100240001296EC91F0E0E65FFC4F1081809169001E
:10025000282F30E0D901AA0FBB1FA20FB31FAD0199
:100260004E5D5C4FFB012181215030E0F901EE0F22
:10027000FF1FEE0FFF1FEE0FFF1FE21BF30BE259F4
:10028000FF4F9081FA0190831183AC5DBC4F9C912C
:10029000987F9C938F5F64E168D59093690028EE06
:1002A00033E040E951E0CA010197F1F721503040B5
:1002B000D1F781E080936D001F910895FC01A28128
:1002C00041814150842F90E09C01220F331F220F67
:1002D000331F220F331F281B390BF901EC58FF4F36
:1002E000808182608B7F8083A7FD1FC0AA23B1F02D
:1002F000F901E259FF4FBB27A7FDB095AE5EBC4F99
:1003000012968C91818387E0489FC0011124825905
:100310009F4F90936700809366000895F901E2591A
:10032000FF4F809112038183EECFF901E259FF4F15
:10033000809113038183E7CFEF92FF920F931F9376
:10034000CF93DF9310916A0080916900811709F4BF
:10035000F2C0809162008F3F09F479C0682F77273F
:1003600067FD70958B01000F111FF801E60FF71F55
:10037000EE5DFC4FF1808081482F50E0AEE9B2E0A5
:10038000FD0127E030E0CA01022E02C09595879555
:100390000A94E2F7817081932150304082E0E63A7E
:1003A000F80789F7108211824F2D50E0EF01229655
:1003B00025E030E0CA01022E02C0959587950A9487
:1003C000E2F7817089932150304082E0CE3AD8071D
:1003D00089F718821982F801E60FF71FEC5DFC4FD0
:1003E00080818C7F808382E08A838B838C838D8362
:1003F0008E838F838C9158968C935897119682E0B8
:10040000A63BB807B9F782E058968C93589759964F
:100410008C9359975A968C935A975B968C935B97CB
:100420005C968C935C975D968C938FEF80936200C3
:10043000109265001092600010926D00109263009F
:10044000DF91CF911F910F91FF90EF900895612F51
:1004500070E07B01EE0CFF1CF701E60FF71FEE5D6D
:10046000FC4F01818081482F50E0AEE9B2E0FD01F0
:1004700027E030E0CA01022E02C0959587950A94C4
:10048000E2F7817081932150304082E0E63AF8072C
:1004900089F710821182402F50E0EF01229625E06B
:1004A00030E0CA01022E02C0959587950A94E2F7C2
:1004B000817089932150304082E0CE3AD80789F785
:1004C00081E088838983F701E60FF71FEC5DFC4F1D
:1004D000808181608D7F808382E08A838B838C839F
:1004E0008D838E838F838C9158968C935897119619
:1004F00082E0A63BB807B9F782E058968C935897EC
:1005000059968C9359975A968C935A975B968C93DD
:100510005B975C968C935C975D968C93812F8F5F35
:1005200064E123D490936A001092650010926000F9
:1005300010926D0083CF809162008F3F09F00ECF43
:10054000E0916600F0916700309709F458C010926E
:1005500067001092660061818081482F50E0EEE9CB
:10056000F2E0DF0127E030E0CA01022E02C09595DB
:1005700087950A94E2F781708D932150304082E094
:10058000A63AB80789F71C9211961C921197462F2C
:1005900050E0129627E030E0CA01022E02C0959585
:1005A00087950A94E2F781708D932150304082E064
:1005B000A03BB80789F782E08C9311968C93119732
:1005C00012968C93129713968C93139714968C9380
:1005D000149715968C938081808F319682E0E63B4C
:1005E000F807C9F782E0808F818F828F838F848F95
:1005F000858F81E080936500809360001FCF80919C
:10060000610090E001C0C901019660E570E0B9D3D6
:10061000982F282F30E0F901EE0FFF1FEE0FFF1F7C
:10062000EE0FFF1FE21BF30BEC58FF4F808181FFA1
:10063000EACF9093610087E0989FF0011124E2597E
:10064000FF4F09F4FBCE87CF81E008951F920F92F0
:100650000FB60F9211248F939F938091640090E0C6
:10066000019683709070809364009F918F910F909A
:100670000FBE0F901F90189510920A0380E380938D
:100680000B038CE080930C038CE380930D0383E0D9
:1006900080930E0383E380930F038FE08093100316
:1006A0008FE3809311030895FF920F931F9310928D
:1006B000120390EC9093130330E33093140320EF74
:1006C000209315036CE0609316034CEC40931703E2
:1006D0007CE3709318035CEF50931903F3E0F093FD
:1006E0001A03E3ECE0931B0383E380931C03A3EF63
:1006F000A0931D03BFE0B0931E031FEC10931F03D4
:100700000FE300932003FF24FA94F09221039093C7
:100710006E0080E88093750030937C002093830006
:1007200080EB80938A0080E28093910080EE80933A
:10073000980080EA80939F006093A6004093AD00EC
:100740008CE88093B4007093BB005093C2008CEB94
:100750008093C9008CE28093D0008CEE8093D70008
:100760008CEA8093DE0088E08093E50088EC80933B
:10077000EC0088E88093F30088E38093FA0088EF28
:100780008093010188EB8093080188E280930F0138
:1007900088EE8093160188EA80931D01F09324016E
:1007A000E0932B0183E88093320192E29093390128
:1007B000A093400183EB8093470183E280934E0135
:1007C00083EE8093550183EA80935C01B0936301CB
:1007D00010936A018FE88093710100937801F09281
:1007E0007F018FEB809386018FE280938D018FEEE6
:1007F000809394018FEA80939B018BE08093A20108
:100800008BEC8093A9018BE88093B0018BE38093FC
:10081000B7018BEF8093BE018BEB8093C5018BE218
:100820008093CC018BEE8093D3018BEA8093DA0125
:1008300082E08093E10182EC8093E80182E880937A
:10084000EF0182E38093F60182EF8093FD0182EB5A
:100850008093040290930B0282EE8093120282EA4C
:10086000809319028EE0809320028EEC8093270201
:100870008EE880932E028EE3809335028EEF809374
:100880003C028EEB809343028EE280934A028EEE0E
:10089000809351028EEA809358028AE080935F022F
:1008A0008AEC809366028AE880936D028AE38093E3
:1008B00074028AEF80937B028AEB809382028AE241
:1008C000809389028AEE809390021092970220E032
:1008D00030E0F901EE0FFF1FEE0FFF1FEE0FFF1FBD
:1008E000E21BF30BEC58FF4F80818D7F80832F5FDD
:1008F0003F4F2035310569F7809174008260809305
:1009000074001F910F91FF9008951F920F920FB6E0
:100910000F9211242F933F934F935F936F937F9385
:100920008F939F93AF93BF93EF93FF938091630057
:100930008130B9F180916C00882339F48091650091
:100940008823E1F517BC8CEC86BD80916C00863362
:1009500070F5E0916C00F0E0E256FD4FE081EE238F
:10096000D1F0E130C1F1E23081F180916C008F5F14
:1009700080936C00FF91EF91BF91AF919F918F9108
:100980007F916F915F914F913F912F910F900FBE8B
:100990000F901F901895809160008823A1F4FFD0DC
:1009A000E4CF80916C00882329F605D1E3CF03D1F1
:1009B00010926C0081E080936300DCCF88E991E0C5
:1009C00097BD86BDC2CFFBD0D0CF80916000882379
:1009D00051F4F1D0CACF80916000882311F4E5D0A2
:1009E000C4CFF3D0C2CFF7D0C0CFCF93DF935F99FE
:1009F00004C080E0DF91CF91089517D180935E030A
:100A0000873731F08C3661F081E0DF91CF91089526
:100A10000CD180935F0309D18093600381E0EACF1A
:100A2000CFE5D3E002D1899383E0C336D807D1F76D
:100A300081E0EBCF80915E03873759F08C3609F067
:100A400008958EE593E03ADC8CE6EBD08AE0E9D0BD
:100A500008958EE593E0F1DB87E7E3D08AE0E1D00B
:100A60000895EF92FF921F93CF93DF93F8DAB7D0F8
:100A700080E0BED088EE93E020E931E0F9013197C3
:100A8000F1F70197D9F711E0C0E0D0E080E9E82E56
:100A900081E0F82E812FB2D0110F88EE93E0F7019C
:100AA0003197F1F70197D9F72196C630D10591F723
:100AB00064D088E090E0AED07ED0F6DDDDDD81E070
:100AC000809365008FB58F778FBD82E991E097BDE8
:100AD00086BD8FB580688FBD89B7816089BF83B7B8
:100AE000856083BF789420E030E0F901EE0FFF1FAE
:100AF000E20FF31FEC5DFC4F80818C7F80832F5FC2
:100B00003F4F2431310589F7AADA809168008F5F61
:100B1000809368006ADF813061F1809164008823EE
:100B200011F54091620080E090E006C032603083B1
:100B3000019684319105A9F0FC01EE0FFF1FE80F2B
:100B4000F91FEC5DFC4F308130FFF2CF232F26954B
:100B5000217061F3213061F7482F019684319105AE
:100B600059F74093620080916300813069F6E4DBBD
:100B7000CBCF8EE593E05EDFD0CFA09AB99A8AE121
:100B80008EBD17BC8CEC86BD89B7806189BF1BBC4C
:100B900082E08FBD0895A89A9BBD8ABD0895A89A4A
:100BA00088E190E09BBD8ABD0895A89A84EB90E00F
:100BB0009BBD8ABD0895A8981BBC1ABC0895A89A2D
:100BC00080E390E09BBD8ABD0895A89A84E091E0FF
:100BD0009BBD8ABD0895A8981BBC1ABC089584B318
:100BE0008E6084BB87B3886287BB81E58DB9089529
:100BF0008FB9779BFECFAB9AAB9808958FB9779B4F
:100C0000FECFA99AA99808958FB9779BFECFAA9A8B
:100C1000AA98089590BD89B988E18AB98EE880BD07
:100C200008955D9BFECF8CB908955F9BFECF8CB17C
:100C300008951F920F920FB60F9211242F938F9346
:100C40009F93EF93FF932CB19091AB038091AC03F2
:100C50009817B8F4E091AF03F091B003219380911D
:100C6000B2038150C1F08093B203F093B003E093DC
:100C7000AF039FB7F8948091AB038F5F8093AB0372
:100C80009FBFFF91EF919F918F912F910F900FBE7A
:100C90000F901F9018958091AC03E81BF109E3CFEA
:100CA0001F920F920FB60F9211242F938F939F9341
:100CB000EF93FF938091A303882331F1E091A50383
:100CC000F091A60321918091A903815021F4809194
:100CD000A403E81BF109F093A603E093A503809316
:100CE000A9039FB7F8948091A30381508093A30335
:100CF0009FBF2CB9FF91EF919F918F912F910F90F2
:100D00000FBE0F901F9018955598F4CF8BEA93E083
:100D100091DA08958BEA93E057DA08958BEA93E02D
:100D20006BDA0895682F83EA93E033DA559A90E0FE
:100D300008959FB710BC87E089B9F89488E98AB90B
:100D400086E880BD8CB15F99FDCF80EC8BB99FBFE9
:100D50008BEA93E063E673E040E411DA83EA93E020
:100D600063EB73E040E40BDA0895991B79E004C06B
:100D7000991F961708F0961B881F7A95C9F78095DA
:100D8000089597FB092E07260AD077FD04D00CD0D2
:100D900006D000201AF4709561957F4F0895F6F7FC
:100DA000909581959F4F0895AA1BBB1B51E107C0E9
:100DB000AA1FBB1FA617B70710F0A61BB70B881FEB
:100DC000991F5A95A9F780959095BC01CD0108957A
:040DD000F894FFCFC5
:040DD400014FFF01CB
:00000001FF
