:100000000C9438000C9455000C9455000C94550039
:100010000C9455000C9455000C9455000C9455000C
:100020000C9455000C9455000C9455000C945500FC
:100030000C9455000C9455000C94B7120C94550078
:100040000C9455000C9455000C94A6120C94550079
:100050000C94A9170C94E5170C9455000C945500BA
:100060000C9455000C9455000C9455000C945500BC
:1000700011241FBECFEFD0E1DEBFCDBF15E0A0E061
:10008000B1E0E0ECF6E302C005900D92A43BB107AD
:10009000D9F71FE0A4EBB5E001C01D92AB3DB1075D
:1000A000E1F70E944C150C945E1B0C940000EF923B
:1000B000FF920F931F937B018C0120E030E040E022
:1000C0005FE40E94250387FD11C0C801B70120E04D
:1000D00030E040E05FE40E94FA010E94B5039B011A
:1000E000AC01205030404040504806C0C801B70124
:1000F0000E94B5039B01AC01B901CA011F910F9188
:10010000FF90EF900895A0E0B0E0E9E8F0E00C94F3
:10011000DF18FC01EA018081823008F438C1DB017C
:100120009C91923008F430C1843059F4943009F035
:100130002EC1918111968C911197981709F021C1C8
:1001400026C1943009F420C19230B1F4823009F014
:100150001EC1CA01AF0128E0DA010D90AD01DC013A
:100160000D92CD012150C1F7DB0111968C911197B1
:100170009181892389830AC1823009F405C1C28033
:10018000D380DB0112966D907C901397248135818A
:10019000468157811496ED90FD900D911C91179713
:1001A000C601861997095C0197FF04C0AA24BB24E5
:1001B000A81AB90AB0E2AB16B1040CF061C0181667
:1001C00019066CF5370148010A2C04C096948794EF
:1001D000779467940A94D2F781E090E0A0E0B0E0D1
:1001E0000A2C04C0880F991FAA1FBB1F0A94D2F7BC
:1001F0000197A109B1098E219F21A023B123EE24EB
:10020000FF248701E3940097A105B10519F4EE24BA
:10021000FF248701E628F728082919293CC0009700
:10022000D1F1CA0CDB1C39014A010A2C04C0969496
:100230008794779467940A94D2F781E090E0A0E0E5
:10024000B0E00A2C04C0880F991FAA1FBB1F0A9494
:10025000D2F70197A109B10982239323A423B523DF
:1002600021E030E040E050E00097A105B10519F42D
:1002700020E030E0A90126293729482959290BC057
:100280006C147D0424F4EE24FF24870104C0630170
:1002900020E030E0A9018181FB019181891709F4F7
:1002A00045C0882349F0D801C701821B930BA40BDA
:1002B000B50B9C01AD0104C02E193F09400B510B39
:1002C00057FD04C01982DB82CA820BC081E089839A
:1002D000DB82CA8250954095309521953F4F4F4F14
:1002E0005F4F2C833D834E835F830DC0880F991F22
:1002F000AA1FBB1F8C839D83AE83BF838A819B8192
:1003000001979B838A838C819D81AE81BF819C01F3
:10031000AD0121503040404050402F3FEFEF3E07AD
:10032000EFEF4E07EFE35E0708F30BC08983DB8234
:10033000CA822E0D3F1D401F511F2C833D834E83CB
:100340005F8383E088832C813D814E815F8157FFED
:100350001DC0DA01C90181709070A070B07056950F
:10036000479537952795822B932BA42BB52B8C8300
:100370009D83AE83BF838A819B8101969B838A8301
:1003800005C0E1EAF4E003C0FB0101C0FE01CF01BA
:10039000CDB7DEB7EEE00C94FB18A0E2B0E0E3EDE1
:1003A000F1E00C94E71869837A838B839C832D8317
:1003B0003E834F83588789E0E82EF12CEC0EFD1E1A
:1003C000CE010196B7010E942F058E010F5E1F4FCF
:1003D000CE010596B8010E942F05C701B801AE01F4
:1003E000475E5F4F0E9483000E946104A096E6E092
:1003F0000C940319A0E2B0E0E0E0F2E00C94E718FE
:1004000069837A838B839C832D833E834F835887B4
:100410008E01075F1F4FCE010196B8010E942F0584
:1004200091E1E92EF12CEC0EFD1ECE010596B701EF
:100430000E942F058A8991E089278A8BC801B7011C
:10044000AE01475E5F4F0E9483000E946104A09648
:10045000E6E00C940319A0E2B0E0E1E3F2E00C94D2
:10046000DB1869837A838B839C832D833E834F8340
:100470005887CE010196BE01675F7F4F0E942F050E
:10048000CE010596BE016F5E7F4F0E942F059985B4
:10049000923078F089898230C0F0943019F482303B
:1004A00041F4CBC0843019F4923079F4C6C0923054
:1004B00051F481E02A859A89291709F480E08A8716
:1004C000CE010996BCC0823051F481E02A859A8918
:1004D000291709F480E08A8BCE014196B0C06D8463
:1004E0007E848F849888ED88FE880F89188DE0E2DD
:1004F000F0E080E090E0DC01AA24BB24650120E06C
:1005000030E0A901B3016170707061157105D1F01F
:100510002E0D3F1D401F511F15012601280E391EAB
:100520004A1E5B1E81E090E0A0E0B0E02E153F0582
:100530004007510718F080E090E0DC01820D931D28
:10054000A41DB51DAA0CBB1CCC1CDD1C17FF09C0CB
:1005500061E0262E312C412C512CA228B328C4282E
:10056000D528319749F0EE0CFF1C001F111F9694FF
:10057000879477946794C6CF6B897C89EB85FC85DB
:100580006E0F7F1F6E5F7F4F7C8F6B8F61E0EA8500
:100590007A89E71709F460E06A8F6B8D7C8D10C053
:1005A000FC01E170F070309729F05695479537952A
:1005B00027955068B695A795979587956F5F7F4F5C
:1005C000B7FDEECF0CC0880F991FAA1FBB1F57FDA8
:1005D0008160220F331F441F551F615070408030CF
:1005E000E0E09E07E0E0AE07E0E4BE0760F36B8F5B
:1005F0007C8F6FE7E62EF12C012D112DE822F922D8
:100600000A231B2360E4E616F1040105110561F4D9
:1006100087FD0AC0211531054105510529F0805C8F
:100620009F4FAF4FBF4F80788D8F9E8FAF8FB8A3F6
:1006300083E0898FCE01499602C081EA94E00E944E
:100640006104A096E2E10C94F718A8E1B0E0EBE2B7
:10065000F3E00C94E71869837A838B839C832D8362
:100660003E834F8358878E01075F1F4FCE0101964F
:10067000B8010E942F0581E1E82EF12CEC0EFD1E41
:10068000CE010596B7010E942F058985823040F082
:100690008989823028F0C801B7010E94980501C0FD
:1006A0008FEF6896E6E00C940319A8E0B0E0EBE564
:1006B000F3E00C94E7187B018C0183E08983D80177
:1006C000C7018827B7FD83959927AA27BB27282F1D
:1006D0008A83E114F1040105110519F482E089838C
:1006E00037C08EE190E09C838B83222389F080E0E9
:1006F000E81680E0F80680E0080780E8180769F14E
:1007000010950095F094E094E11CF11C011D111D61
:10071000ED82FE820F831887C801B7010E9407048B
:100720009C01215030401216130694F4022E04C08E
:10073000EE0CFF1C001F111F0A94D2F7ED82FE82FF
:100740000F8318878EE190E0821B930B9C838B8331
:10075000CE0101960E94610404C060E070E080E078
:100760009FEC2896E6E00C940319ACE0B0E0EBEBCC
:10077000F3E00C94EB1869837A838B839C83CE011E
:100780000196BE016B5F7F4F0E942F058D818230E5
:1007900081F1823070F1843021F48E81882369F1F7
:1007A0000AC02F81388537FD24C06E812F31310575
:1007B0003CF0662311F120E030E040E050E821C039
:1007C0008EE190E0821B930B29853A854B855C85F1
:1007D00004C056954795379527958A95D2F7662395
:1007E00081F050954095309521953F4F4F4F5F4F89
:1007F00008C020E030E0A90104C02FEF3FEF4FEF29
:100800005FE7B901CA012C96E2E00C940719AF9298
:10081000BF92CF92DF92EF92FF920F931F937B01D3
:100820008C0180E0E81680E0F80681E0080780E0AF
:10083000180758F4EFEFEE16F1040105110509F061
:1008400090F480E090E0DC0117C0F0E0EF16F0E0FB
:10085000FF06F0E00F07F1E01F0750F480E190E0A1
:10086000A0E0B0E009C088E090E0A0E0B0E004C003
:1008700088E190E0A0E0B0E020E230E040E050E02D
:10088000281B390B4A0B5B0B5701680104C0D69437
:10089000C794B794A7948A95D2F7D601C501875516
:1008A0009B4FFC018081281B310941095109C90175
:1008B0001F910F91FF90EF90DF90CF90BF90AF907E
:1008C0000895EF92FF920F931F93CF93DF93FC0154
:1008D000248135814681578161818081823020F475
:1008E0004061EFEFF0E0A3C0843009F49BC0823098
:1008F00009F492C0211531054105510509F48FC055
:100900000280F381E02D8FEFE238F8070CF05AC037
:10091000C2E8DFEFCE1BDF0BCA31D1056CF57901E0
:100920008A010C2E04C016950795F794E7940A9453
:10093000D2F781E090E0A0E0B0E00C2E04C0880F78
:10094000991FAA1FBB1F0A94D2F70197A109B109E9
:1009500082239323A423B52321E030E040E050E03C
:100960000097A105B10519F420E030E0A9012E2976
:100970003F29402B512B03C020E030E0A901DA01D0
:10098000C9018F779070A070B07080349105A10577
:10099000B10539F427FF09C0205C3F4F4F4F5F4F2F
:1009A00004C0215C3F4F4F4F5F4FE1E0F0E020304B
:1009B00080E0380780E0480780E4580728F5E0E049
:1009C000F0E022C0E038F1056CF5E158FF4FDA01A4
:1009D000C9018F779070A070B07080349105A10527
:1009E000B10539F427FF09C0205C3F4F4F4F5F4FDF
:1009F00004C0215C3F4F4F4F5F4F57FF05C05695D6
:100A0000479537952795319687E0569547953795C1
:100A100027958A95D1F70BC0E0E0F0E005C0E0E053
:100A2000F0E005C0EFEFF0E020E030E0A9018E2F0C
:100A3000879588278795942F9F7767956627679571
:100A4000E695E22EA92FA82BFE2FF62B622F732FEF
:100A50008A2F9F2FCDB7DEB7E6E00C940319DC0197
:100A6000FB012C9111963C91119712968C91129743
:100A7000482F4F7750E0982F991F9927991F139669
:100A80006C911397862F880F892B90E0661F66273D
:100A9000661F6183009739F5211531054105510520
:100AA00011F482E029C082E89FEF9383828367E09C
:100AB000220F331F441F551F6A95D1F783E08083AF
:100AC00009C0220F331F441F551F82819381019754
:100AD00093838283203080E0380780E0480780E4F9
:100AE000580778F320C08F3F910579F4211531051F
:100AF0004105510519F484E08083089544FF03C043
:100B000081E0808310C010820EC08F579040938385
:100B1000828383E0808387E0220F331F441F551FA9
:100B20008A95D1F75064248335834683578308958B
:100B3000FC01DB019081923008F449C08C91823035
:100B400008F445C0943051F461818430B1F51196B8
:100B50002C91119730E0261B310941C0843021F0DF
:100B6000923041F48230B1F111968C911197882323
:100B7000A1F12DC06181823001F111968C91119704
:100B80006817D9F42281338112968D919C91139725
:100B90008217930794F028173907BCF02481358118
:100BA0004681578114968D919D910D90BC91A02DF9
:100BB00082179307A407B50718F4662341F00DC008
:100BC000281739074A075B0728F4662331F021E02C
:100BD00030E005C020E030E002C02FEF3FEFC90158
:100BE0000895CF93DF9380E091E00E942018C0E049
:100BF000D0E0FE01E954FA4F808180FF03C085E018
:100C000091E007C081FF03C088E091E002C08BE063
:100C100091E00E9420182196C830D10551F78DE04F
:100C20000E943F188091C10085FDFCCFDF91CF91DC
:100C300008951F93FC01E954FA4F80818C7F8083D3
:100C400010E020E030E041E050E0F901E954FA4FD3
:100C5000808180FF09C0BA01022E02C0660F771F93
:100C60000A94E2F7162B09C0BA01022E02C0660FE1
:100C7000771F0A94E2F7609516232F5F3F4F2830C5
:100C8000310519F7812F0E946517812F0E946C177B
:100C90000E94F1051F9108951F93FC01E954FA4F3A
:100CA00080818E7F808310E020E030E041E050E0E2
:100CB000F901E954FA4F808180FF09C0BA01022E80
:100CC00002C0660F771F0A94E2F7162B09C0BA011B
:100CD000022E02C0660F771F0A94E2F76095162372
:100CE0002F5F3F4F2830310519F7812F0E9465177C
:100CF000812F0E946C171F9108950F931F93CF931C
:100D0000DF930E947317082F882329F08EE091E06B
:100D1000602F0E940808C0E0D0E020E010E0C80189
:100D20000C2E02C0959587950A94E2F780FF0CC0BF
:100D3000FE01E954FA4F808180FF06C08260808303
:100D4000CE010E944C0621E02196C830D10539F72A
:100D5000222311F00E94F105DF91CF911F910F9195
:100D600008951F93FC01E954FA4F808181608D7FC3
:100D7000808310E020E030E041E050E0F901E954E8
:100D8000FA4F808180FF09C0BA01022E02C0660FAF
:100D9000771F0A94E2F7162B09C0BA01022E02C08F
:100DA000660F771F0A94E2F7609516232F5F3F4F77
:100DB0002830310519F7812F0E946517812F0E9475
:100DC0006C170E94F1051F9108951F9380E090E039
:100DD000FC01E954FA4F20812C7F20830196883052
:100DE0009105B1F710E020E030E041E050E0F9017A
:100DF000E954FA4F808180FF09C0BA01022E02C077
:100E0000660F771F0A94E2F7162B09C0BA01022E6B
:100E100002C0660F771F0A94E2F7609516232F5FD2
:100E20003F4F2830310519F7812F0E946517812F18
:100E30000E946C1785E191E00E944E180E94F10516
:100E40001F91089580E090E0FC01E954FA4F208161
:100E50002C7F2083019688309105B1F70E94E5062A
:100E600008951F9380E090E0FC01E954FA4F20813F
:100E700021602D7F2083019688309105A9F710E02D
:100E800020E030E041E050E0F901E954FA4F808180
:100E900080FF09C0BA01022E02C0660F771F0A94B4
:100EA000E2F7162B09C0BA01022E02C0660F771FA7
:100EB0000A94E2F7609516232F5F3F4F28303105E3
:100EC00019F7812F0E946517812F0E946C178DE101
:100ED00091E00E944E180E94F1051F9108958091A3
:100EE000C10085FDFCCF089587B1806387B908955F
:100EF000449A8FE79AE1A6E081509040A040E1F744
:100F000000C0000044988FE79AE1A6E0815090402D
:100F1000A040E1F700C00000449A8FE79AE1A6E004
:100F200081509040A040E1F700C0000044988FE756
:100F30009AE1A6E081509040A040E1F700C0000097
:100F40000895449A8FEF94E3ACE081509040A04024
:100F5000E1F700C0000044988FEF94E3ACE08150CB
:100F60009040A040E1F700C000000895449A4498E2
:100F70000895459A45980895459A8FE79AE1A6E025
:100F800081509040A040E1F700C0000045988FE7F5
:100F90009AE1A6E081509040A040E1F700C0000037
:100FA000459A8FE79AE1A6E081509040A040E1F792
:100FB00000C0000045988FE79AE1A6E0815090407C
:100FC000A040E1F700C000000895459A8FEF94E338
:100FD000ACE081509040A040E1F700C0000045988F
:100FE0008FEF94E3ACE081509040A040E1F700C067
:100FF00000000895459A089545980895449A0895E3
:10100000449808958AE00E943F180E946F0708954F
:101010000F931F93CF93DF93062F0E942018C7E0F2
:10102000D0E010E0C8010C2E02C0959587950A9477
:10103000E2F780FD02C080E301C081E30E943F1817
:1010400021973FEFCF3FD30769F70E940208DF9156
:10105000CF911F910F910895CF93DF93EB010E94E1
:101060002018CE010E9420180E940208DF91CF9123
:1010700008950F931F93CF93DF93EC018B01809121
:10108000AF05843050F00E946F0784E291E00E9427
:101090002018CE01B8010E942C08DF91CF911F913A
:1010A0000F9108950F931F93CF93DF93EC018B0162
:1010B0008091AF05833050F00E946F078CE291E081
:1010C0000E942018CE01B8010E942C08DF91CF9118
:1010D0001F910F9108950F931F93CF93DF93EC010E
:1010E0008B018091AF05823050F00E946F0783E33F
:1010F00091E00E942018CE01B8010E942C08DF91D7
:10110000CF911F910F9108950F931F93CF93DF936A
:10111000EC018B018091AF05882351F00E946F078D
:101120008AE391E00E942018CE01B8010E942C08A9
:10113000DF91CF911F910F9108950E9420180E9476
:1011400002080895CF93DF93EC018091AF058430BE
:1011500048F00E946F0784E291E00E942018CE01BF
:101160000E949D08DF91CF910895CF93DF93EC010A
:101170008091AF05833048F00E946F078CE291E0C8
:101180000E942018CE010E949D08DF91CF91089502
:10119000CF93DF93EC018091AF05823048F00E943D
:1011A0006F0783E391E00E942018CE010E949D0802
:1011B000DF91CF910895CF93DF93EC018091AF053C
:1011C000882349F00E946F078AE391E00E9420186B
:1011D000CE010E949D08DF91CF9108950F931F9338
:1011E000DF93CF9300D000D0CDB7DEB720E22983C4
:1011F0002A832B832C838E010F5F1F4FB8014AE097
:1012000050E00E94A91AC8010E9420180F900F9068
:101210000F900F90CF91DF911F910F910895CF9371
:10122000DF93EC0182E491E00E942018CE0124E0DB
:10123000969587952A95E1F78F708A3010F4805D36
:1012400001C0895C0E943F189E012F70822F2A30B6
:1012500010F4805D01C0895C0E943F180E946F07F6
:10126000DF91CF910895CF93DF93EC010E94EE08B8
:1012700085E491E00E942018CE010E940F0988E4C5
:1012800091E00E9420180E946F07DF91CF9108958E
:10129000DF93CF930F92CDB7DEB769830E942018FA
:1012A0006981862F90E00E9433090E9402080F9006
:1012B000CF91DF9108950F931F93DF93CF930F92F8
:1012C000CDB7DEB78C018091AF05843058F06983CB
:1012D0000E946F0784E291E00E942018C801698192
:1012E0000E9448090F90CF91DF911F910F910895AF
:1012F0000F931F93DF93CF930F92CDB7DEB78C017F
:101300008091AF05833058F069830E946F078CE2AB
:1013100091E00E942018C80169810E9448090F903D
:10132000CF91DF911F910F9108950F931F93DF933A
:10133000CF930F92CDB7DEB78C018091AF0582308D
:1013400058F069830E946F0783E391E00E942018A0
:10135000C80169810E9448090F90CF91DF911F91C8
:101360000F9108950F931F93DF93CF930F92CDB7F3
:10137000DEB78C018091AF05882359F069830E9404
:101380006F078AE391E00E942018C80169810E94DA
:1013900048090F90CF91DF911F910F910895FC01A3
:1013A000108275836483738362834183478346839A
:1013B0000895FC01908181819817A0F4A481B581E2
:1013C0006D938781815019F48181A81BB1098783AE
:1013D000B583A4839FB7F89480818F5F80839FBF7C
:1013E00081E0089580E00895FC0180818823E9F37D
:1013F000A281B3818D919681915019F49181A91B9D
:10140000B109B383A28396832FB7F894908191504A
:1014100090832FBF0895FC0180818823A1F0A281D1
:10142000B3812D918681815019F48181A81BB10966
:10143000B383A28386839FB7F89480818150808391
:101440009FBF30E002C02FEF3FEFC9010895FC01BC
:101450008081882331F00280F381E02D208130E00B
:1014600002C02FEF3FEFC9010895FC01808108956C
:101470000F931F93DF93CF930F92CDB7DEB78C01FD
:10148000862F8150823030F08AE491E00E94DB08A0
:1014900080E01FC08DE691E069830E94A208698107
:1014A000613039F48CE791E00E94A2080E94310774
:1014B0000FC0F801828193810E94451A182F81E99B
:1014C00091E0612F0E945B09812F90E00E94B1069C
:1014D00081E00F90CF91DF911F910F9108950F93AD
:1014E0001F93DF93CF930F92CDB7DEB78C01862F7A
:1014F0008150823030F082EA91E00E94DB0880E087
:101500001DC087EC91E069830E94A2086981613067
:1015100039F488ED91E00E94A2080E94E5060DC012
:101520008EEE91E060E00E945B09F8018281938178
:101530000E94451A90E00E94190681E00F90CF9119
:10154000DF911F910F910895DF92EF92FF920F9319
:101550001F93CF93DF93EC01633029F080E092E09A
:101560000E94DB0883C089E292E00E94A2088A817F
:101570009B810E94451AD82E682F70E0882777FD3E
:101580008095982F0E94550320E030E040E85EE30C
:101590000E942B020E94D21A7B018C010C80DD81FB
:1015A000C02DCE016EE372E00E94681A0097B1F080
:1015B000CE0160E472E00E94681A009779F0CE01D3
:1015C00062E472E00E94681A009751F0CE0164E470
:1015D00072E00E94681A009719F048C080E001C0CC
:1015E00081E0DA9493E0D922DD0CD80E8091C1001D
:1015F00085FDFCCFC801B7010E945700E62E86E4A6
:1016000092E06E2D0E945B0988E592E06D2D0E94AC
:101610005B094091A20E5091A30ECA01880F991F39
:10162000840F951FDC01A65AB24F2E2D30E02150B9
:101630003040F90143E0EE0FFF1F4A95E1F7E21B4E
:10164000F30BE154FA4F20812C93ED2DF0E0E65797
:10165000F14F208111962C93FC01E45AF24F8081C6
:10166000887F80830E94E50E81E001C080E0DF91E9
:10167000CF911F910F91FF90EF90DF900895FF920F
:101680000F931F93DF93CF9300D000D0CDB7DEB779
:101690008C01633029F087E692E00E94DB0850C09D
:1016A00081E992E00E94A208F801828193810E9460
:1016B000451AF82EF801248135818E010F5F1F4FE6
:1016C000C801B9010E947B1AC80169EA72E00E9450
:1016D000681A009781F48F2D90E00197FC01A3E038
:1016E000EE0FFF1FAA95E1F7E81BF90BEC53FA4F39
:1016F0008081806416C0C8016DEA72E00E94681A99
:101700000097F1F48F2D90E00197FC0173E0EE0F4C
:10171000FF1F7A95E1F7E81BF90BEC53FA4F808134
:101720008F7B808380EB92E06F2D0E945B098EEBB4
:1017300092E0BE016F5F7F4F0E94390881E001C0D7
:1017400080E00F900F900F900F90CF91DF911F913D
:101750000F91FF9008956F927F928F929F92AF9218
:10176000BF92CF92DF92EF92FF920F931F93DF937E
:10177000CF930F92CDB7DEB74C01693031F089ECD1
:1017800092E00E94DB0880E016C286E093E00E94AF
:10179000A208D40112968D919C9113970E94451A2C
:1017A000682FF4018481958169830E94451A182F5E
:1017B000D40116968D919C9117970E94451AE82E98
:1017C000F401808591850E94451A082FD4011A964C
:1017D0008D919C911B970E94451AF82EF4018485E7
:1017E00095850E94451AC82ED4011E968D919C9114
:1017F0001F970E94451AB82EF401808991890E9492
:10180000451AD82E6981A62EAA942091B50E309142
:10181000B60EF901EE0FFF1FEE0FFF1FE151F84F5B
:10182000128213828FEF9FEF918380838A2C9924F9
:10183000A401A3E0440F551FAA95E1F748195909DF
:101840007FEB672E75E0772E640E751ED30113961D
:101850008C911397811789F44C535A4FDA014C91AC
:10186000417050E08E2D90E04817590731F4D301B4
:1018700014968C911497801751F0F901EE0FFF1F09
:10188000EE0FFF1FE151F84F81E0828301C0128209
:10189000F40183E0EE0FFF1F8A95E1F7E819F909DB
:1018A000EC53FA4F40814695417050E08F2D90E007
:1018B0004817590749F0F901EE0FFF1FEE0FFF1F00
:1018C000E151F84F81E08383F401A3E0EE0FFF1FA5
:1018D000AA95E1F7E819F909EC53FA4F40814695CA
:1018E0004695417050E08C2D90E04817590749F01B
:1018F000F901EE0FFF1FEE0FFF1FE151F84F82E0DD
:101900008383F40153E0EE0FFF1F5A95E1F7E819C6
:10191000F909EC53FA4F408146954695469541703A
:1019200050E08B2D90E04817590749F0F901EE0F70
:10193000FF1FEE0FFF1FE151F84F83E08383F40197
:1019400093E0EE0FFF1F9A95E1F7E819F909EC53C0
:10195000FA4F40814295417050E08D2D90E048173C
:10196000590749F0F901EE0FFF1FEE0FFF1FE1517C
:10197000F84F84E08383F401B3E0EE0FFF1FBA95C4
:10198000E1F7E819F909DF01AC53BA4F8C91806295
:101990008C93E154FA4F16828481081759F08381A1
:1019A000882331F48091560D81838283048314C08F
:1019B000112391F4F401A3E0EE0FFF1FAA95E1F7C4
:1019C000E819F909E154FA4F1383A12FB0E0AE569C
:1019D000B14F8C9181838283C401E3E0880F991F0A
:1019E000EA95E1F788199909FC01EC53FA4F208137
:1019F00026FF29C081549A4FFC019481812F875082
:101A0000992329F4883048F0173048F004C0883012
:101A100040F0173040F08FEF07C08CEC05C08FEC22
:101A200003C080E301C083E3F40173E0EE0FFF1F06
:101A30007A95E1F7E819F909E154FA4F918189277C
:101A4000857589278183F40153E0EE0FFF1F5A95B6
:101A5000E1F7E819F909EC53FA4F91E0EE2009F4A7
:101A600090E080818E7F892B8083F40143E0EE0F2C
:101A7000FF1F4A95E1F7E819F909EC53FA4F81E0A5
:101A8000FF2009F480E0982F990F80818D7F892BAA
:101A90008083F40133E0EE0FFF1F3A95E1F7E81978
:101AA000F909EC53FA4F81E0CC2009F480E0982F3B
:101AB000990F990F80818B7F892B8083F40123E01C
:101AC000EE0FFF1F2A95E1F7E819F909EC53FA4FD9
:101AD00081E0BB2009F480E0982F990F990F990FAE
:101AE0008081877F892B8083F40193E0EE0FFF1FB5
:101AF0009A95E1F7E819F909EC53FA4F81E0DD20F6
:101B000009F480E0982F9295907F80818F7E892BB9
:101B1000808380EB92E00E945B09F40183E0EE0F8A
:101B2000FF1F8A95E1F7E819F909EC53FA4F808114
:101B300086FF03C08BE193E002C089E293E00E943C
:101B4000A20886E393E0612F0E945B0983E493E09F
:101B50006E2D0E945B098DE493E0602F0E945B096B
:101B60008EE593E06F2D0E945B0988E693E06C2D73
:101B70000E945B0982E793E06B2D0E945B098CE772
:101B800093E06D2D0E945B09F401B3E0EE0FFF1F9F
:101B9000BA95E1F7E819F909EC53FA4F60816295BB
:101BA00066956695617086E893E00E945B098A2DD0
:101BB0000E94F30E81E00F90CF91DF911F910F9162
:101BC000FF90EF90DF90CF90BF90AF909F908F905D
:101BD0007F906F900895623031F08BE993E00E941E
:101BE000DB0880E00895FC01828193810E94451A00
:101BF0008093AF0583EB93E00E94A20881E00895F3
:101C00009F92AF92BF92CF92DF92EF92FF920F938B
:101C10001F93DF93CF9300D00F92CDB7DEB7C82EBE
:101C2000E92EDE011196E9EEF3E083E001900D92DA
:101C30008150E1F7AC2DBE2DFD0101900020E9F7A8
:101C40003197EA1BFB0B2C2D3E2DD90140E050E0D3
:101C500020E030E009C08D918C3211F0803211F417
:101C60002F5F3F4F4F5F5F4F4E175F07A1F7C901CF
:101C7000880F991F0E941219D82EF92E082F192F9C
:101C80008C2D9E2D5E010894A11CB11CB5010E94F3
:101C9000631AF80191838083ED2CCC24DD249A2CE7
:101CA000AB2C0CC00894C11CD11C80E090E0692DC5
:101CB0007A2D0E94631AF70191838083F701819145
:101CC00091917F01009771F7F801E080F180C701E1
:101CD0006BEC73E00E94681A009739F0C7016FEC53
:101CE00073E00E94681A009729F4C8016C2D0E94C5
:101CF000380A42C0C70162ED73E00E94681A00977B
:101D000039F0C70168ED73E00E94681A009729F462
:101D1000C8016C2D0E946F0A2FC0C7016BED73E0E4
:101D20000E94681A009729F4C8016C2D0E94A40A29
:101D300023C0C7016EED73E00E94681A009729F472
:101D4000C8016C2D0E94AB0B17C0C70161EE73E098
:101D50000E94681A009729F4C8016C2D0E943F0B5D
:101D60000BC0C70165EE73E00E94681A009731F45A
:101D7000C8016C2D0E94EB0DF82E01C0FF24C80194
:101D80000E94AC198F2D0F900F900F90CF91DF9183
:101D90001F910F91FF90EF90DF90CF90BF90AF9089
:101DA0009F9008958CEE93E00E94A20887EB9EE03E
:101DB0000E94A20887EB9EE00E94000E882321F477
:101DC0008DEF93E00E94DB0808958091A20E909120
:101DD000A30E019664E670E00E94C8189093A30ECB
:101DE0008093A20E08952091B50E3091B60EF901A0
:101DF000EE0FFF1FEE0FFF1FE151F84F808311829E
:101E0000C901019668EC70E00E94C8189093B60E64
:101E10008093B50E0895FC012230A9F0233018F408
:101E2000213089F505C02330C9F0243061F521C087
:101E3000858181FF04C04A3041F183EF29C04230DF
:101E400031F180EF25C0858182FF04C04B30E9F07D
:101E50008FE01EC04330D9F08CE01AC0858183FF2B
:101E600004C04D3091F08FE313C0453081F08CE316
:101E70000FC0858184FF03C04E3029F406C0463070
:101E800031F08CEF05C08FEF03C083E301C08CEC11
:101E9000862785758627089590E020E231E0829FAD
:101EA000F001839FF00D929FF00D1124DF01A05FE0
:101EB000B44F82E052968C93529753968C935397DB
:101EC00054968C93549755968C93559756968C931D
:101ED000569757968C93579758968C9380E090E03E
:101EE000DF01A80FB91FA05FB44F2C91DC01AE0F2A
:101EF000BF1FA75DB44F2C9301968231910581F7E6
:101F0000E05FF44F82E083A784A785A786A787A711
:101F100008954F925F927F928F929F92AF92BF925D
:101F2000CF92DF92EF92FF920F931F93CF93DF93A5
:101F3000762EE42EC82FD0E0FE01B3E0EE0FFF1F97
:101F4000BA95E1F7EC1BFD0BE154FA4FA0808181BB
:101F5000F280438160E070E0072D10E0BB24A7E031
:101F60008A2E912CA0E2B1E00A9F60010B9FD00C59
:101F70001A9FD00C1124D401A61BB70B250102C057
:101F800055944794AA95E2F7942D9170D601A60F27
:101F9000B71FA05FB44F9C936F5F7F4F6830710590
:101FA00051F7BE0153E0660F771F5A95E1F76C1B9E
:101FB0007D0BDB01AC53BA4F9C919170D601A05FB1
:101FC000B44F18969C93189719969C93DB01A154D3
:101FD000BA4F6E2D6130E9F415969C91159796FFD6
:101FE00036C09091500D992389F4E092500DA09144
:101FF000590DA43028F4B0E0A055BA4F2C9101C07F
:1020000020E0CF016F2D0E940B0F22C01092500DC7
:102010001FC015969C91159796FF09C0222341F089
:10202000CF016F2D2091860E0E940B0F01C08F2DC6
:102030009091AF0E9F5F21E0983C08F420E038ECCF
:10204000239F202D1124921B9093AF0E01C08F2D42
:1020500027E030E041E150E090E060E271E0069F6F
:10206000D001079FB00D169FB00D1124FA01E21B9D
:10207000F30BBC01022E02C0759567950A94E2F736
:102080006170EA0FFB1FE05FF44F60832150304026
:102090006FEF2F3F360751F78091560DF81669F410
:1020A000FE0143E0EE0FFF1F4A95E1F7EC1BFD0B2D
:1020B000E154FA4F128213821182872D0E944C0F35
:1020C000EE2029F180E090E040E251E0049F900191
:1020D000059F300D149F300D11242DC0F901E80F1C
:1020E000F91FDA01A20FB31FA05FB44F6C91E40F88
:1020F000F51FE05FF44F60832F5F3F4F20333105C2
:1021000069F7C09621E08032920761F40EC080E347
:1021100090E020E231E0029FA001039F500D129F4A
:10212000500D112420E030E0D9CFF801EE0FFF1F51
:10213000E055F14F17C0F901E80FF91FE05FF44FC8
:102140004081FC01E20FF31FE05CF44F40830196F5
:102150008033910581F7F801EE0FFF1FE055F14F35
:1021600080E690E091838083DF91CF911F910F9162
:10217000FF90EF90DF90CF90BF90AF909F908F90A7
:102180007F905F904F90089590E020E231E0829F31
:10219000A001839F500D929F500D1124FA01E05F22
:1021A000F44F22E0228B238B248B258B268B278BCD
:1021B000208F218F20E030E0FA01E20FF31FE05F73
:1021C000F44F6081F901E40FF51FE65DF44F608381
:1021D0002F5F3F4F2231310579F72CE230E060E28A
:1021E00071E0869FA001879F500D969F500D11248E
:1021F00082E0FA01E20FF31FE05FF44F80832F5F6C
:102200003F4F2B333105A9F70895BF92CF92DF924C
:10221000EF92FF920F931F93CF93DF93B62E082F69
:1022200010E0F801EE0FFF1FE00FF11FE65AF24F2A
:102230006081A18180E090E0EB2CFF24C62FD0E0EC
:1022400047E050E0E0E2F1E0EE9E9001EF9E300DBD
:10225000FE9E300D1124FA01E81BF90B6E0102C03D
:10226000D594C794EA95E2F77C2D7170F901E80FD7
:10227000F91FE05FF44F708301968830910559F79C
:10228000F901E05FF44F1086118685E090E02FE0C1
:1022900030E0B0E040E251E0E49EE001E59ED00D88
:1022A000F49ED00D1124F901E81BF90BAD01082EA5
:1022B00002C0559547950A94E2F74170EC0FFD1F57
:1022C000E05FF44F408301974FEF8F3F940759F73A
:1022D0008091890E6801CC0CDD1CC05FD44F88232F
:1022E00081F485E194E00E945B0981E0888B898B11
:1022F000F601E00FF11FE45AF24F808181608D7F7B
:102300000DC089E294E00E945B09188A198AF601DF
:10231000E00FF11FE45AF24F80818C7F80838B2D78
:102320000E94C41080E090E040E251E0E49E900101
:10233000E59E300DF49E300D1124F901E80FF91FD0
:10234000E05FF44F4081FC01E20FF31FE55BF44FC7
:10235000408301968B33910581F786E790E040E258
:1023600051E0E49E9001E59E300DF49E300D112465
:1023700042E0F901E80FF91FE05FF44F4083019656
:1023800080399105B1F78091F70E882379F4809117
:10239000890E882349F48091A60E8F5F64E60E941F
:1023A000A8189093A60E02C01092890EDF91CF91CB
:1023B0001F910F91FF90EF90DF90CF90BF90089505
:1023C000FF920F931F932091AD0E30E02F5F3F4F90
:1023D00021703070122F8091F70E882309F06AC0A7
:1023E0008091580D8823D1F54091AF0EE42FF0E095
:1023F0008091B50E9091B60E8E179F0779F1EE0F72
:10240000FF1FEE0FFF1FE151F84F8281813021F055
:102410009381992331F415C08081622F40E020E040
:1024200007C0882339F48081622F40E02091860E16
:102430000E94890FE12FF0E0E957F14F81E080839E
:102440007FC0842F8F5F91E0883C08F490E028ECF7
:10245000929F902D1124891B8093AF0E8091A60E20
:10246000282F30E04091A20E5091A30E421753073F
:1024700021F49091890E9923E9F09091890E913081
:1024800011F48091520D9091F70E992341F490919F
:10249000580D992321F491E09093F70E02C0109209
:1024A000580D612F0E940511E12FF0E0E957F14F1F
:1024B000108246C08091510D9091500D992369F57D
:1024C00090E0019660E570E00E94C818F82E009137
:1024D000590D20E530E0882311F40F5F0370482F79
:1024E00050E0FA0163E0EE0FFF1F6A95E1F7E41B8D
:1024F000F50BEC53FA4F908195FF05C00093590DF1
:102500008093510D0AC0CA010196B9010E94C818F2
:102510008F1509F70093590D8FEF612F41E020E0EF
:102520000E94890FE12FF0E0E957F14F81E08083AD
:102530009091F70E992321F01092F70E8093580D89
:1025400010920F0B1F910F91FF9008951F920F9201
:102550000FB60F9211248F938091AE0E8F5F8093F0
:10256000AE0E8F910F900FBE0F901F9018951F9277
:102570000F920FB60F9211242F933F934F935F93B7
:102580006F937F938F939F93AF93BF93EF93FF933B
:1025900080910F0B813049F48091AB0E9091AC0E7D
:1025A000009719F40E944F178CC08091AB0E909148
:1025B000AC0E009799F58091AD0E90E00196817078
:1025C00090708093AD0E81E080930F0BE091AD0E83
:1025D000F0E0E957F14F8081882359F48091FE0E95
:1025E000809389008091FD0E8093880080E990E0BF
:1025F00011C08091060F809389008091050F809310
:102600008800E091AD0EF0E0EE0FFF1FE055F14FB6
:10261000808191819093A80E8093A70E4091AD0E7A
:1026200050E08091AB0E9091AC0E20E231E0429FE1
:10263000F001439FF00D529FF00D1124E80FF91F98
:10264000E05FF44F8081882371F4E091AD0EF0E0FB
:10265000E957F14F8081882319F40E94211722C085
:102660000E943B171FC0813071F4E091AD0EF0E085
:10267000E957F14F8081882319F40E942B1712C06B
:102680000E9445170FC0823069F4E091AD0EF0E072
:10269000E957F14F8081882319F40E94351702C051
:1026A0000E944F178091AB0E9091AC0E01966091F5
:1026B000A70E7091A80E0E94B4189093AC0E809350
:1026C000AB0EFF91EF91BF91AF919F918F917F9151
:1026D0006F915F914F913F912F910F900FBE0F908F
:1026E0001F90189510928A0E80E380938B0E8CE0D9
:1026F00080938C0E8CE380938D0E83E080938E0EFE
:1027000083E380938F0E8FE08093900E8FE380930E
:10271000910E089590E0FC0123E0EE0FFF1F2A9533
:10272000E1F7E81BF90BEC53FA4F21E0662309F4BB
:1027300020E0322F3295330F330F307C20812F7BF6
:10274000232B2083FC01B3E0EE0FFF1FBA95E1F7C6
:10275000E81BF90BDF01AC53BA4F8C91E154FA4FEF
:102760001682138291E09483118212828062807EAD
:102770008C9386FF06C0918183E38927857589271D
:10278000818308950F931F931092920E10E310937C
:10279000930EB0EFB093940EACE0A093950EFCECCA
:1027A000F093960EECE3E093970E7CEF7093980E07
:1027B00063E06093990E83EC80939A0E93E3909379
:1027C0009B0E53EF50939C0E4FE040939D0E3FECB9
:1027D00030939E0E2FE320939F0E9FEF9093A00EB9
:1027E00001E00093A10E00EC0093BF0500E8009308
:1027F000C6051093CD05B093D405B0EBB093DB05BF
:10280000B0E2B093E205B0EEB093E905B0EAB09360
:10281000F005A093F705F093FE05FCE8F09305069C
:10282000E0930C06709313067CEB70931A067CE21F
:10283000709321067CEE709328067CEA70932F0635
:1028400078E07093360678EC70933D0678E87093E4
:10285000440678E370934B0678EF7093520678EB5A
:102860007093590678E27093600678EE709367066D
:1028700078EA70936E066093750680937C0683E811
:102880008093830682E280938A065093910653EBED
:102890005093980653E250939F0653EE5093A6062A
:1028A00053EA5093AD064093B4063093BB063FE81D
:1028B0003093C2062093C9069093D0069FEB909365
:1028C000D7069FE29093DE069FEE9093E5069FEA7F
:1028D0009093EC069BE09093F3069BEC9093FA06A2
:1028E0009BE8909301079BE3909308079BEF9093DD
:1028F0000F079BEB909316079BE290931D079BEEAF
:10290000909324079BEA90932B0792E090933207D1
:1029100092EC9093390792E89093400792E390935A
:10292000470792EF90934E0792EB90935507809351
:102930005C0782EE8093630782EA80936A078EE0E9
:10294000809371078EEC809378078EE880937F07E1
:102950008EE3809386078EEF80938D078EEB8093B6
:1029600094078EE280939B078EEE8093A2078EEAF7
:102970008093A9078AE08093B0078AEC8093B70719
:102980008AE88093BE078AE38093C5078AEF809325
:10299000CC078AEB8093D3078AE28093DA078AEE2A
:1029A0008093E1071092E807A0ECB5E080E090E0AA
:1029B00041E131E0FC0153E0EE0FFF1F5A95E1F7D2
:1029C000E81BF90BEC53FA4F20812F7D2064208304
:1029D0004C9311961C9211972081207E2083139690
:1029E0003C93139715961C92159701961796803570
:1029F000910501F78091CB058F7B8093CB0580916A
:102A0000E7058F7B8093E7058091F5058F7B8093A9
:102A1000F50580913B068F7B80933B0680914906AC
:102A20008F7B80934906809165068F7B8093650636
:102A3000809173068F7B80937306809137078F7B1D
:102A400080933707809145078F7B8093450780915E
:102A500061078F7B8093610780916F078F7B8093E5
:102A60006F078091B5078F7B8093B5078091C3076F
:102A70008F7B8093C3078091DF078F7B8093DF0775
:102A80008091ED078F7B8093ED078EE461E00E94DB
:102A90008A131F910F9108951F931092AA0E1092FE
:102AA000A90E1092AE0E8FE48093510D1092590D25
:102AB0001092A30E1092A20E1092A60E1092530D19
:102AC0001092B60E1092B50E1092AF0E1092890EA3
:102AD0001092520D1092AD0E1092AC0E1092AB0EE1
:102AE0001092A80E1092A70E11E010930F0B1092E7
:102AF000A50E1092A40E8FEF9FEF9093550D80932B
:102B0000540D1092F80E1092860E80EC8093560DA4
:102B10001092570D1092F70E1092580D1092500D02
:102B20000E9474070E947E170E94551780E00E9441
:102B3000651778940E942207F8940E94C2130E949D
:102B400072130E94E4161093870E1093880E82E091
:102B500090E09093B10E8093B00E9093B30E80935B
:102B6000B20E8091060F809389008091050F8093AB
:102B700088000E944F1780916F00846080936F00DF
:102B80008091800080628093800080916E008160DF
:102B900080936E0085B5856085BD80E090E0FC0186
:102BA000EE0FFF1FE80FF91FE45AF24F20812C7F30
:102BB000208301968436910591F7EFEEF7E08FEFD1
:102BC0009FEF2FEF918380831282238334963BE023
:102BD000EF30F307B9F778948FE394E00E94B508DB
:102BE0008DE594E00E94B5088BE794E00E94B5085B
:102BF00089E894E062E10E945B098CE994E00E941C
:102C00004E1814E60E946218813021F487EB9EE092
:102C10000E94D20E8091AE0E863038F18091890EDE
:102C2000882319F51092AE0E8091530D282F30E0B5
:102C3000F901EE0FFF1FE20FF31FE45AF24F20815C
:102C400020FF13C0922F9695917019F42260208373
:102C50000CC0913051F49093890E8093520D8F5F88
:102C6000612F0E94A8189093530D80910F0B813013
:102C700011F40E94E0110E947D06C4CFFF920F93D1
:102C80001F9310E001E06091AD0E70E06F5F7F4F29
:102C900061707070F62E812F40E020E00E94890F55
:102CA000EF2DF0E0E957F14F008310920F0B809168
:102CB0000F0B8823E1F31F5F103529F781E0809324
:102CC000860E10E06091AD0E70E06F5F7F4F617017
:102CD0007070062F812F40E021E00E94890FE02FC5
:102CE000F0E0E957F14F81E0808310920F0B809163
:102CF0000F0B8823E1F31F5F103521F782E08093EB
:102D0000860E10E06091AD0E70E06F5F7F4F6170D6
:102D10007070062F812F40E021E00E94890FE02F84
:102D2000F0E0E957F14F81E0808310920F0B809122
:102D30000F0B8823E1F31F5F103521F783E08093A9
:102D4000860E10E06091AD0E70E06F5F7F4F617096
:102D50007070062F812F40E021E00E94890FE02F44
:102D6000F0E0E957F14F81E0808310920F0B8091E2
:102D70000F0B8823E1F31F5F103521F784E0809368
:102D8000860E10E06091AD0E70E06F5F7F4F617056
:102D90007070062F812F40E021E00E94890FE02F04
:102DA000F0E0E957F14F81E0808310920F0B8091A2
:102DB0000F0B8823E1F31F5F103521F71092860E69
:102DC0001F910F91FF90089589EF91E09093040F68
:102DD0008093030F8FEC9DE09093FA0E8093F90E91
:102DE00088EC9FE09093060F8093050F1092000FE0
:102DF0001092FF0E87EF90E09093FC0E8093FB0EF5
:102E000081EC96E09093020F8093010F88EB97E09E
:102E10009093FE0E8093FD0E389A549A83E080932F
:102E2000800089E180938100109289008091050FD4
:102E3000809388000895409A90938B0080938A0035
:102E40000895409A8091FC0E80938B008091FB0E38
:102E500080938A000895409A8091020F80938B009E
:102E60008091010F80938A000895409810928B0002
:102E700010928A000895409A8091040F80938B00ED
:102E80008091030F80938A000895409A8091FA0EF2
:102E900080938B008091F90E80938A00089540986A
:102EA00010928B0010928A00089587B18E6087B9C6
:102EB000249A84B1806A84B981E58CBD08953A9AD8
:102EC000249A279A88E58CBD08958EBD0DB407FE1F
:102ED000FDCF4398439A08958EBD0DB407FEFDCFF4
:102EE0004198419A08954298429A1EBC0DB407FE3B
:102EF000FDCF0DB407FEFDCF8EB508959FB710929C
:102F0000C5008AE08093C400F89488E98093C100EA
:102F100086E08093C2008091C6008091C00087FD4A
:102F2000FACF82EC8093C0008091C10080628093D0
:102F3000C1009FBF8FE49FE067E07FE040E40E9414
:102F4000CF0987E49FE067E57FE040E80E94CF0972
:102F500008951F920F920FB60F9211242F938F9303
:102F60009F93EF93FF939091C60020914F0F809114
:102F7000500F2817D8F4E091530FF091540F91930C
:102F80008091560F815021F48091500FE81BF10978
:102F90008093560FF093540FE093530F2FB7F8948C
:102FA00080914F0F8F5F80934F0F2FBF9D3019F48B
:102FB00081E08093B605FF91EF919F918F912F91C2
:102FC0000F900FBE0F901F9018951F920F920FB683
:102FD0000F9211242F938F939F93EF93FF938091E0
:102FE000470F8823F1F0E091490FF0914A0F91913A
:102FF00080914D0F815021F48091480FE81BF10919
:10300000F0934A0FE093490F80934D0F2FB7F89438
:103010008091470F81508093470F2FBF9093C60038
:1030200005C08091C1008F7D8093C100FF91EF9119
:103030009F918F912F910F900FBE0F901F90189519
:103040001F93CF93DF93EC0120E030E010E007C046
:1030500087E49FE00E94D909282F30E01F5FFE011E
:10306000E10FF11D6081662399F78091C1008062B4
:103070008093C100C901DF91CF911F910895682FFE
:1030800087E49FE00E94D909E1ECF0E09081906232
:10309000908390E008950E943F1808950E942018A0
:1030A0008DE00E943F188091C10085FDFCCF0895FE
:1030B0008FE49FE00E940B0A08958FE49FE00E9436
:1030C000F40908951F93CF93DF938091B605882369
:1030D00031F10E945D18C7EBDEE010E00EC089936D
:1030E0001F5F103441F48FE49FE067E07FE040E42D
:1030F0000E94CF0904C00E945D188D3081F71092A4
:10310000B605E12FF0E0E954F14F10828091B70E3F
:10311000883539F481E09091B80E913818F080E04C
:1031200001C082E0DF91CF911F9108958FE49FE06D
:103130000E94350A08958FE49FE00E94270A0895AF
:1031400002C00E9458180E9496188823D1F708954B
:10315000991B79E004C0991F961708F0961B881FE9
:103160007A95C9F780950895AA1BBB1B51E107C04A
:10317000AA1FBB1FA617B70710F0A61BB70B881F07
:10318000991F5A95A9F780959095BC01CD01089596
:1031900097FB092E07260AD077FD04D0E5DF06D07D
:1031A00000201AF4709561957F4F0895F6F7909579
:1031B00081959F4F08952F923F924F925F926F9209
:1031C0007F928F929F92AF92BF92CF92DF92EF92B7
:1031D000FF920F931F93CF93DF93CDB7DEB7CA1B38
:1031E000DB0B0FB6F894DEBF0FBECDBF09942A8863
:1031F000398848885F846E847D848C849B84AA840B
:10320000B984C884DF80EE80FD800C811B81AA8197
:10321000B981CE0FD11D0FB6F894DEBF0FBECDBF62
:10322000ED010895CF93DF938230910510F482E091
:1032300090E0E091D90FF091DA0F40E050E020E00B
:1032400030E026C06081718168177907E0F0681767
:10325000790781F4828193812115310531F0D901FB
:1032600013969C938E9312972BC09093DA0F8093B2
:10327000D90F26C04115510519F06417750718F4C8
:10328000AB01E901DF019F0172816381E72FF62F16
:103290003097C1F64115510501F1481B590B4430D7
:1032A000510580F412968D919C911397209719F0F7
:1032B0009B838A8304C09093DA0F8093D90FFD011A
:1032C000329646C0FD01E40FF51F81939193425061
:1032D000504011965C934E933BC02091D70F309194
:1032E000D80F2115310541F42091AB053091AC0583
:1032F0003093D80F2093D70F2091AD053091AE05B4
:103300002115310541F42DB73EB74091A9055091E3
:10331000AA05241B350BE091D70FF091D80FE217C7
:10332000F307A0F42E1B3F0B2817390778F0AC01E8
:103330004E5F5F4F2417350748F04E0F5F1F5093C5
:10334000D80F4093D70F8193919302C0E0E0F0E053
:10335000CF01DF91CF910895CF93DF93009709F4C8
:1033600091C0FC013297138212826091D90F709143
:10337000DA0F6115710581F420813181280F391F21
:103380008091D70F9091D80F8217930799F5F093FA
:10339000D80FE093D70F76C0DB0180E090E002C049
:1033A000CD01D901AE17BF0748F412962D913C917B
:1033B000139721153105A1F7CD0121C0B383A28355
:1033C000EF01499159919E01240F351FA217B307B0
:1033D00079F42D913C911197240F351F2E5F3F4FAB
:1033E0003183208312962D913C911397338322834E
:1033F000009729F4F093DA0FE093D90F43C0DC0172
:103400001396FC93EE9312974D915D91A40FB51F07
:10341000EA17FB0769F420813181240F351F2E5FE5
:103420003F4FEC0139832883228133813B832A83F8
:10343000E0E0F0E002C0FB01BC01DB0112968D91DF
:103440009C9113970097B9F79B012E5F3F4F8D9189
:103450009C911197820F931F4091D70F5091D80FD5
:103460004817590779F4309729F41092DA0F10921F
:10347000D90F02C013821282225030403093D80FED
:103480002093D70FDF91CF910895FC0188279927CA
:10349000E89421912032E9F3293010F02E30C8F35E
:1034A0002B3241F02D3239F4689404C00E94CA1ABC
:1034B000820F911D219120532A30C0F31EF4909564
:1034C00081959F4F089544EB55E00E94821A08951C
:1034D000FB01DC018D9181341CF08B350CF4805E96
:1034E000619161341CF06B350CF4605E861B6111D8
:1034F00089F3990B0895FB01DC0101900D920020E6
:10350000E1F70895FA01A191B081009719F410979D
:10351000E1F0CD01DC01CD010D90002011F4C001DE
:1035200013C0FB012191222319F02015D9F7F3CF05
:10353000FB012191201519F41E92119606C0222339
:10354000C1F70D900020A1F7D001FA01A193B0833B
:103550000895FB019F01E8944230C4F04532B4F471
:103560004A3029F497FB1EF4909581959F4F642F64
:1035700077270E94B418805D8A330CF0895D8193AF
:10358000CB010097A1F716F45DE251931082C901B7
:103590000C942C1B7AE0979F902D879F802D910D86
:1035A000112408953BD080F09F3740F491110EF420
:1035B0004DC060E070E080E89FE3089526F01B16A0
:1035C000611D711D811D01C01BC0882371F477230B
:1035D00021F09850872B762F07C0662311F4992786
:1035E0000DC09051862B70E060E02AF09A95660F2E
:1035F000771F881FDAF7880F9695879597F90895B2
:103600009F3F31F0915020F4879577956795B79556
:10361000880F911D9695879597F9089535D0A0F05C
:10362000BEE7B91788F4BB279F3860F41616B11DA2
:10363000672F782F8827985FF7CF869577956795BE
:10364000B11D93959639C8F30895E894BB27662772
:103650007727CB0197F90895DC01FC01672F719161
:103660007723E1F7329704C07C916D937083629168
:10367000AE17BF07C8F3089557FD9058440F551F64
:1036800059F05F3F71F04795880F97FB991F61F0E4
:103690009F3F79F087950895121613061406551F5B
:1036A000F2CF4695F1DF08C0161617061806991FC7
:1036B000F1CF86957105610508940895F894FFCFC0
:1036C00058425320004120005320004F20007368CF
:1036D0006F72743A00507772206F6666005077728E
:1036E000206F6E0044454255473A2000494E464FF0
:1036F0003A20005741524E3A20004552524F523A1A
:103700002000307800205B005D00436F6D6D616EBE
:103710006420666F726D61743A20474F205B626F60
:103720006F737465726E756D6265725D004E65775C
:1037300020476F20436F6D6D616E64007475726E0B
:10374000206F6E20414C4C20626F6F7374657273F2
:10375000007475726E206F6E20626F6F7374657285
:103760002000436F6D6D616E6420666F726D6174D1
:103770003A2053544F50205B626F6F737465726EC2
:10378000756D6265725D004E65772053746F7020B1
:10379000436F6D6D616E64007475726E206F666646
:1037A00020414C4C20626F6F7374657273007475A6
:1037B000726E206F666620626F6F73746572200090
:1037C000436F6D6D616E6420666F726D61743A2037
:1037D0005854207475726E6F75746E756D62657273
:1037E00020727C677C307C31004E657720536F6C93
:1037F000656E6F696420436F6D6D616E6400670074
:103800003100720030004465636F6465722D41645D
:1038100064726573733A20004465636F6465722D4A
:10382000506F72743A2000436F6D6D616E64206654
:103830006F726D61743A20584C53205B6C6F636FEC
:103840006E756D6265725D205B6D6D7C6D6D325D58
:10385000004E6577204C6F636F20436F6E6669671B
:1038600020436F6D6D616E64004D4D32004D4D0013
:103870004C6F636F204E756D6265723A2000507216
:103880006F746F636F6C3A2000436F6D6D616E648F
:1038900020666F726D61743A20584C206C6F636FB4
:1038A0006E756D62657220737065656420666C204C
:1038B000646972656374696F6E20463120463220F8
:1038C0004633204634004E6577204C6F636F20539B
:1038D000657420436F6D6D616E640050726F746F1C
:1038E000636F6C3A204D4D320050726F746F636F8E
:1038F0006C3A204D4D004C6F636F205370656564CA
:103900003A20004C6F636F20464C3A20004C6F63A6
:103910006F20446972656374696F6E3A20004C6F62
:10392000636F2046313A20004C6F636F2046323A75
:1039300020004C6F636F2046333A20004C6F636F5A
:103940002046343A20004C6F636F2069734E6577D0
:1039500050726F746F636F6C3A2000436F6D6D61CE
:103960006E6420666F726D61743A20584442203054
:103970002D34004E6577204465627567204C65766E
:10398000656C20436F6D6D616E640058474F005841
:1039900021005853544F5000582E00585400584C92
:1039A00000584C530058444200202C00436F6D6D6A
:1039B000616E6420726563656976656400436F6D4E
:1039C0006D616E64206E6F74207265636F676E69DF
:1039D0007A65640A0061637469766174696E672050
:1039E0006465636F64657220006465616374697601
:1039F0006174696E67206465636F64657220002D71
:103A00002D2D2D2D2D2D2D2D2D2D2D2D2D2D2D2DE6
:103A10002D2D2D2D2D2D2D2D2D2D2D2D004164489D
:103A20006F632D4D6165726B6C696E2047656E65C5
:103A30007261746F722056302E31004861766520B5
:103A400046756E203A2D290A004D4D5F5041434B7B
:103A500045545F4C454E4754483A20005852530D48
:103A60000000000000000000000001020203030348
:103A70000304040404040404040505050505050500
:103A800005050505050505050506060606060606DF
:103A900006060606060606060606060606060606C6
:103AA00006060606060606060607070707070707AF
:103AB0000707070707070707070707070707070796
:103AC0000707070707070707070707070707070786
:103AD0000707070707070707070707070707070776
:103AE000070707070707070707080808080808085F
:103AF0000808080808080808080808080808080846
:103B00000808080808080808080808080808080835
:103B10000808080808080808080808080808080825
:103B20000808080808080808080808080808080815
:103B30000808080808080808080808080808080805
:103B400008080808080808080808080808080808F5
:103B500008080808080808080808080808080808E5
:103B60000808080808080808082000DB0F00000102
:043B70000102030447
:00000001FF
