:100000000C94BE000C94DD000C94DD000C94A42133
:100010000C9491200C94DD000C94DD000C94DD0018
:100020000C94DD000C94DD000C94DD000C94DD00DC
:100030000C94DD000C94DD000C94C1200C94DD00C8
:100040000C94DD000C94DD000C94B72E0C94DD00B4
:100050000C9445420C949E420C94DD000C94DD00FF
:100060000C94DD000C94DD000C94DD000C94DD009C
:100070000C94DD000C94DD000C94DD000C94DD008C
:100080000C94DD000C94DD000C94DD00E221F521E0
:10009000072219222B223D224F2268227A228C220B
:1000A0009E22B022C222D422E622F8220A231C2356
:1000B0002E23402352236423762388239A23AC23C0
:1000C000BE23D023DE23F023FE2310241E2430245D
:1000D0003E2450245E2470247E2490249E24B02448
:1000E000BE24D024DE24F024FE2410251E25302535
:1000F0003E2550255E2570257E259025CA25DC25C8
:100100001626282662267426AC26BC26F32603274C
:100110003A274A2781279127C827D8270F281F2841
:10012000562866289D28AD28E428F4282B293B2949
:1001300072298229B929C929002A102A472A572A4F
:100140008E2A9E2AD52AE52A1C2B2C2B632B732B57
:10015000AA2BBA2BF12B012C382C482C7F2C8F2C5E
:10016000C62CD62C0D2D1D2D542D642D9B2DAB2D65
:10017000E22DF22D292E392E702E802E11241FBE35
:10018000CFEFD0E4DEBFCDBF18E0A0E0B1E0E2E702
:10019000FEE800E00BBF02C007900D92A63EB1073B
:1001A000D9F72AE3A6EEB8E001C01D92A33CB2073E
:1001B000E1F70E94CB340C9437470C940000CF93A6
:1001C000DF938CE091E00E94DE42C0E0D0E0FE01CF
:1001D000E351F74F808180FF03C081E191E007C0C8
:1001E00081FF03C08EE091E002C084E191E00E94B3
:1001F000DE422196C830D10551F78DE0DF91CF91D5
:100200000C94054320E030E080E041E050E0F9014B
:10021000E351F74F9081BA01022E01C0660F0A9494
:10022000EAF790FF02C0862B02C0609586232F5FFD
:100230003F4F2830310559F70895CF93FC01E35122
:10024000F74F80818E7F8D7F80830E940201C82FAF
:100250000E94DE418C2F0E94E541CF910C94DF007B
:10026000CF93FC01E351F74F80818E7F80830E9402
:100270000201C82F0E94DE418C2FCF910C94E541E2
:100280000F931F93CF93DF930E94EC41082F882395
:1002900029F0682F87E191E00E94B902C0E0D0E028
:1002A00020E010E0C8010C2E02C0959587950A94B5
:1002B000E2F780FF0CC0FE01E351F74F808180FF21
:1002C00006C082608083CE010E94300121E0219629
:1002D000C830D10539F7222331F0DF91CF911F913A
:1002E0000F910C94DF00DF91CF911F910F91089532
:1002F000CF93FC01E351F74F808181608D7F808334
:100300000E940201C82F0E94DE418C2F0E94E5410D
:10031000CF910C94DF00CF9380E090E0FC01E3519B
:10032000F74F20812E7F2D7F208301968830910505
:10033000A9F70E940201C82F0E94DE418C2F0E9463
:10034000E5418EE191E00E941A43CF910C94DF00C9
:100350000C948B01CF9380E090E0FC01E351F74FC8
:10036000208121602D7F2083019688309105A9F797
:100370000E940201C82F0E94DE418C2F0E94E5419D
:1003800086E291E00E941A43CF910C94DF008AE04C
:100390000C9405438DE00C9405430E94DE420C94BE
:1003A000CA01CF93DF93EC0180910A01882349F0C1
:1003B0008DE291E00E94DE42CE01DF91CF910C945C
:1003C000CD01DF91CF910895CF93DF93EC01809120
:1003D0000A01823048F085E391E00E94DE42CE01BE
:1003E000DF91CF910C94CD01DF91CF910895CF9300
:1003F000DF93EC0180910A01833048F08CE391E0B7
:100400000E94DE42CE01DF91CF910C94CD01DF91AD
:10041000CF910895CF93DF93EC0180910A0184304E
:1004200048F083E491E00E94DE42CE01DF91CF915B
:100430000C94CD01DF91CF910895CF93DF93EB0121
:100440000E94DE42CE010E94DE42DF91CF910C94E9
:10045000CA010F931F93CF93DF9300D0CDB7DEB7C0
:100460008C0180910A01882389F08DE291E06983F3
:100470007A830E94DE4269817A81C8010F900F90D1
:10048000DF91CF911F910F910C941D020F900F904F
:10049000DF91CF911F910F9108950F931F93CF93E9
:1004A000DF9300D0CDB7DEB78C0180910A01823096
:1004B00088F085E391E069837A830E94DE42698156
:1004C0007A81C8010F900F90DF91CF911F910F910A
:1004D0000C941D020F900F90DF91CF911F910F91FF
:1004E00008950F931F93CF93DF9300D0CDB7DEB75E
:1004F0008C0180910A01833088F08CE391E069835C
:100500007A830E94DE4269817A81C8010F900F9040
:10051000DF91CF911F910F910C941D020F900F90BE
:10052000DF91CF911F910F9108950F931F93CF9358
:10053000DF9300D0CDB7DEB78C0180910A01843003
:1005400088F083E491E069837A830E94DE426981C6
:100550007A81C8010F900F90DF91CF911F910F9179
:100560000C941D020F900F90DF91CF911F910F916E
:1005700008950F931F93CF93DF93062F0E94DE42BF
:10058000C7E0D0E010E0C8010C2E02C09595879519
:100590000A94E2F780FD02C080E301C081E30E947B
:1005A0000543219780F7DF91CF911F910F910C9414
:1005B000CA01CF93DF93CDB7DEB72B970FB6F89470
:1005C000DEBF0FBECDBF20E229832A832B832C837D
:1005D0002D832E832F83288729872A872B872AE03C
:1005E000AE014F5F5F4F0E94EB46CE0101960E9425
:1005F000DE422B960FB6F894DEBF0FBECDBFDF9163
:10060000CF910895CF92DF92EF92FF92CF93DF9335
:100610006B017C018BE491E00E94DE42CCE1D0E0F2
:10062000D701C6010C2E04C0B695A795979587955E
:100630000A94D2F78F708A3010F0895C01C0805D17
:100640000E9405432497CC3F8FEFD80749F7DF91ED
:10065000CF91FF90EF90DF90CF900895CF92DF92EF
:10066000EF92FF926B017C010E94D9028EE491E02F
:100670000E94DE42C701B6010E94020381E796E0B4
:10068000FF90EF90DF90CF900C94DE42CF93DF93FA
:100690001F92CDB7DEB769830E94DE42698170E0A8
:1006A00080E090E00E942E030F90DF91CF910C9498
:1006B000CA010F931F93CF93DF931F92CDB7DEB77D
:1006C0008C0180910A01882371F08DE291E06983A9
:1006D0000E94DE426981C8010F90DF91CF911F9186
:1006E0000F910C9446030F90DF91CF911F910F91C2
:1006F00008950F931F93CF93DF931F92CDB7DEB76B
:100700008C0180910A01823070F085E391E0698369
:100710000E94DE426981C8010F90DF91CF911F9145
:100720000F910C9446030F90DF91CF911F910F9181
:1007300008950F931F93CF93DF931F92CDB7DEB72A
:100740008C0180910A01833070F08CE391E0698321
:100750000E94DE426981C8010F90DF91CF911F9105
:100760000F910C9446030F90DF91CF911F910F9141
:1007700008950F931F93CF93DF931F92CDB7DEB7EA
:100780008C0180910A01843070F083E491E06983E8
:100790000E94DE426981C8010F90DF91CF911F91C5
:1007A0000F910C9446030F90DF91CF911F910F9101
:1007B0000895CF93DF9300D000D0CDB7DEB7498343
:1007C0005A836B837C830E94DE4249815A816B810C
:1007D0007C81CB01BA010E942E030F900F900F90E5
:1007E0000F90DF91CF910C94CA010F931F93CF9379
:1007F000DF9300D000D0CDB7DEB78C0180910A0125
:100800008330B8F08CE391E049835A836B837C8317
:100810000E94DE4249815A816B817C81C8010F9020
:100820000F900F900F90DF91CF911F910F910C942B
:10083000D9030F900F900F900F90DF91CF911F91E0
:100840000F910895FC011082758364837383628322
:1008500041834783468381E080870895FC0120819E
:1008600030E0818190E00A9728173907B4F43FB748
:10087000F894A481B581CD0101966C932781215014
:1008800019F42181821B91092783958384838081B8
:100890008F5F80833FBF81E0089580E00895FC0171
:1008A00080818823E9F0A281B3819D012F5F3F4FB2
:1008B0008C9196815081418146954695541708F454
:1008C0005B984FB7F894915019F49181291B310925
:1008D0003383228396839081915090834FBF0895F4
:1008E00086E10895FC01808108950F931F93CF93B3
:1008F000DF931F92CDB7DEB78C018FEF860F82306A
:1009000030F081E591E00E94D10180E022C085E7CE
:1009100091E069830E940A026981613039F484E8B8
:1009200091E00E940A020E94AA010FC0F801828190
:1009300093810E9444468C01682F89E991E00E94CE
:10094000B903C80199270E94780180EA8093B41BFB
:1009500081E00F90DF91CF911F910F9108950F9338
:100960001F93CF93DF931F92CDB7DEB78C018FEF2C
:10097000860F823030F08AEA91E00E94D10180E057
:100980001FC080ED91E069830E940A026981613095
:1009900039F481EE91E00E940A020E948B010FC09F
:1009A000F801828193810E9444468C01682F87EF71
:1009B00091E00E94B903C80199270E941D0181E0BE
:1009C0000F90DF91CF911F910F910895613031F019
:1009D00089E092E00E94D10180E008958DE192E0EB
:1009E0000E940A020E94DF0081E00895FF920F93A7
:1009F0001F93CF93DF938C01633019F084E392E06F
:100A000053C081E792E00E940A02F801828193813B
:100A10000E946246F62EC62FD72FF8010481158159
:100A20006CE872E0C8010E948D46892B89F064E968
:100A300072E0C8010E948D46892B61F06BE972E07B
:100A4000C8010E948D46892B09F03FC012E003C007
:100A500010E001C011E06F2D85EA92E00E94B90319
:100A6000612F87EB92E00E94B903EDEBFEE18081FC
:100A700091818C179D0719F486EC92E015C0389689
:100A80008FE1ED3FF80799F7ADEBBEE1E0E0F0E074
:100A90008D919C911197892B51F031961896E832DF
:100AA000F105B1F783EE92E00E94D1010EC083E020
:100AB000EE0FFF1F8A95E1F7E354F14ED183C08317
:100AC00015831682178281E001C080E0DF91CF910B
:100AD0001F910F91FF9008959F92AF92BF92CF9276
:100AE000DF92EF92FF920F931F93CF93DF9300D08B
:100AF00000D000D0CDB7DEB77C01633029F088EF9D
:100B000092E00E94D10116C183E293E00E940A02A2
:100B1000F701828193810E946246D62E062F172FFD
:100B2000B80180E090E00E94EC4320E030E040E833
:100B30005EE30E9492440E94AD430E94C043C62ED1
:100B4000A62EB12CF701E480F58068E373E0C701BD
:100B50000E948D46892BB1F06AE373E0C7010E94C1
:100B60008D46892B79F06CE373E0C7010E948D46B6
:100B7000892B51F06EE373E0C7010E948D46892BEB
:100B800019F0D8C080E001C081E0DA94FD2DF37047
:100B9000DF2EDD0CD80E6C2D85EA92E00E94B903A1
:100BA0006D2D80E493E00E94B903E3E0F0E0C5011D
:100BB000BF010E947F43F82ECB01BF010E947F43FB
:100BC000282FC50169E070E00E947F43CB01BF017F
:100BD0000E947F43E82EC5016BE170E00E947F43D5
:100BE000CB01BF010E947F43982EC50161E570E0F3
:100BF0000E947F43CB01BF010E947F4391E0F91225
:100C000002C033E0F32E213009F423E0E1E0EE12DC
:100C100002C093E0E92EF1E09F1202C0B3E09B2EE8
:100C2000813009F483E0409193205091942096E024
:100C3000949FF001959FF00D1124ED5AF34E30E092
:100C400094E0F99E200D311D1124220F331F220F35
:100C5000331F2E0D311D220F331F220F331F290D7D
:100C6000311D220F331F220F331F280F311D3183F7
:100C700020831382ADEBBEE1E0E0F0E08D919C912A
:100C8000119780179107F1F493E0EE0FFF1F9A95EB
:100C9000E1F7E354F14E86E0849FD001859FB00DCB
:100CA0001124AD5AB34E8D919C91119793838283F9
:100CB000D482858113968C93139781E08783159650
:100CC0008C9305C031961896E832F105B9F66C2D73
:100CD0008DEA92E00E94B903809193209091942034
:100CE00016E0189FF001199FF00D1124ED5AF34EF4
:100CF0004AE0BE016F5F7F4F808191810E940D4766
:100D0000BC018FE493E00E94950280919320909122
:100D10009420189FF001199FF00D1124ED5AF34E05
:100D2000AD2DB0E0AE54B14E8C9182830E94A92EBD
:100D300081E001C080E026960FB6F894DEBF0FBEBA
:100D4000CDBFDF91CF911F910F91FF90EF90DF907A
:100D5000CF90BF90AF909F900895CF92DF92EF9287
:100D6000FF92CF93623019F08BE593E019C0FC013C
:100D7000828193810E9462466B017C019B01EDEFB1
:100D8000FFE180E090E0C82F408151814217530776
:100D900059F00196339682339105A9F783E893E0E1
:100DA0000E94D10180E0E8C0FC01EE0FFF1FE80FB8
:100DB000F91FE350F04E8281823090F5E7E8F6E1CA
:100DC00040E0808190E08217930749F04F5FF596ED
:100DD0004931B9F788E993E00E94D1011DC025E3AC
:100DE0004831C1F0842F90E0289FD001299FB00D99
:100DF0001124A957B94E0196289FF001299FF00DA3
:100E00001124E957F94E822F01900D928A95E1F74E
:100E10004F5FE6CF10927F1B6C2D88EB93E06DC087
:100E20008230A9F5E7E3FCE040E080819181821700
:100E3000930751F04F5FE859FF4F4931B1F78DECFF
:100E400093E00E94D1011FC028E64831C1F0842FF1
:100E500090E0289FD001299FB00D1124AD5CB34FC5
:100E60000196289FF001299FF00D1124ED5CF34FAE
:100E7000822F01900D928A95E1F74F5FE6CF109295
:100E8000F8151092F7156C2D8EEE93E036C0833076
:100E9000B9F5EBE9F0E240E0808191818217930798
:100EA00051F04F5FEA51FF4F4931B1F780E094E0D4
:100EB0000E94D1011FC026EE4831C1F0842F90E07E
:100EC000289FD001299FB00D1124A556BF4D019632
:100ED000289FF001299FF00D1124E556FF4D822F28
:100EE00001900D928A95E1F74F5FE6CF10922C3674
:100EF00010922B366C2D81E294E00E94B90304C05D
:100F000083E394E00E94D101C133C9F08C2F90E0BB
:100F1000FC01EE0FFF1FE80FF91FE350F04E0196A2
:100F2000DC01AA0FBB1FA80FB91FA350B04E8D91B3
:100F30009D91AC9180839183A283CF5FE5CF109286
:100F400091201092902083E494E00E94DE42C70139
:100F5000B601882799270E94D9028FE494E00E9465
:100F6000DE420E94CA018091FD1F9091FE1F892BD5
:100F700011F40E94BB2F81E0CF91FF90EF90DF90A2
:100F8000CF900895623031F08FE594E00E94D10156
:100F900080E00895FC01828193810E944446809301
:100FA0000A0189E894E00E940A0281E00895CF9343
:100FB000DF9300D000D01F92CDB7DEB7623031F0A2
:100FC00081EA94E00E94D10180E026C0FC016281A8
:100FD0007381CE0101960E94A04666EC74E0CE01BA
:100FE00001960E948D46892B21F4EA9A8CEC94E0BC
:100FF0000BC06AE578E0CE0101960E948D46892BF0
:1010000031F4EA9884EE94E00E940A0204C08CEF66
:1010100094E00E94D10181E00F900F900F900F900B
:101020000F90DF91CF910895823099F018F48130BC
:1010300031F02CC08330B9F08430F9F027C0613032
:1010400021F42A3029F193EF26C0223019F190EFD4
:1010500022C0613021F42B30D9F09FE01CC0233036
:10106000C9F09CE018C0613021F42D3089F09FE375
:1010700012C0253079F09CE30EC0613019F42E3097
:1010800029F406C0263031F09CEF05C09FEF03C065
:1010900093E301C09CEC892F8427857584270895EC
:1010A000AF92BF92CF92DF92EF92FF920F931F9376
:1010B000CF93DF9391E09093ED389093EE381092B8
:1010C000EF38A82EB12C28E6829FF0011124ED5CA8
:1010D000F34F44815581E0EFF8E388E090E09A0116
:1010E000082E02C0369527950A94E2F721702193C5
:1010F0000197A8F71092F9381092FA3881E080939E
:10110000FB3898E69A9DF0019B9DF00D1124EF01AC
:10111000C65CD34F988191709093FC38623079F41B
:101120001092FD381092FE381092FF38109200395C
:1011300010920139109202398093033913C0ED5C8B
:10114000F34F468150E0EDEFF8E386E090E09A013E
:10115000082E02C0359527950A94E2F72170219355
:101160000197A8F71092043981E0809305398093A4
:1011700006398093073928E62A9DC0012B9D900DE2
:101180001124FC01E45CF34F208121702093083985
:10119000FC01E55CF34F208127FB332730F93093C6
:1011A000093926FB332730F930930A3925FB3327D9
:1011B00030F930930B3924FB332730F930930C3955
:1011C00023FB332730F930930D3922FB332730F9D5
:1011D00030930E3921FB332730F930930F392170CA
:1011E00020931039FC01E65CF34F808187FB99273F
:1011F00090F99093113986FB992790F990931239C1
:1012000085FB992790F99093133984FB992790F9DE
:101210009093143983FB992790F99093153982FBA9
:10122000992790F990931639869581708093173994
:10123000109218391092193910921A3910921B39DC
:1012400010921C3910921D3910921E3910921F39BC
:10125000EDEEF8E38FE790E0880F991F2191820F60
:10126000911D90FF03C0992727E08227A9E3E03270
:10127000FA0791F787FB992790F99093183986FB25
:10128000992790F99093193985FB992790F99093B4
:101290001A3984FB992790F990931B3983FB99277E
:1012A00090F990931C3982FB992790F990931D39FE
:1012B00081FB992790F990931E39817080931F3993
:1012C000EDEEF8E320E030E003E3F02EAF014D5EF9
:1012D00058438F2D90E04817590704F5619161300C
:1012E000D1F42F5F3F4F2830310581F720E030E007
:1012F0008C010351174C21503109BC01620F731F3F
:101300004617570734F4E801C20FD31F6881698379
:10131000F2CF1082F39420E030E0D8CFFC01E3510B
:10132000F74C108222E021831282138224831582DB
:1013300016822783108611862287EC012B96FE01E8
:10134000E351F74C108288E68A9DF0018B9DF00DE9
:101350001124ED5CF34F93E0928784E08387248728
:1013600095878687278760E070E020E030E086E0A0
:1013700090E0A3E0FA2EB4E0EB2E12E0D12E2C1771
:101380003D0779F428E62A9DF0012B9DF00D1124EC
:10139000ED5CF34FE80FF91F84E0828786E08387D6
:1013A0007DC0A9014351574CDA01CC90A9014F5F90
:1013B0005F4FB1E0CB120AC06115710519F5AF019D
:1013C000480F591FDA011A96CC923CC0C11046C092
:1013D0008A010351174CD8011C91111107C09F01BC
:1013E000280F391FD9011A96EC9236C0113061F5D9
:1013F000AF01480F591FDA011A96FC92019661E07D
:1014000070E046C08A010351174CD8011C9111119C
:101410000EC061307105E1F59F01280F391FD90118
:101420001A96DC9201969A0160E070E031C01130AA
:1014300079F56130710561F5AF01480F591FDA0187
:101440001A961C93019624C0123011F59F01280FA3
:10145000391FD9011A96FC92019619C0B2E0CB123D
:1014600017C08A010351174CD8011C91111110C0EB
:101470009F01280F391FD9011A96CC9201964C175B
:101480005D0729F4E80FF91F86E0828707C09A01FB
:101490002F5F3F4FC217D3070CF071CF81E0DF9170
:1014A000CF911F910F91FF90EF90DF90CF90BF9061
:1014B000AF9008952F923F924F925F926F927F92DA
:1014C0008F929F92AF92BF92CF92DF92EF92FF9254
:1014D0000F931F93CF93DF93CDB7DEB7A3970FB6CC
:1014E000F894DEBF0FBECDBF8C01688F633018F457
:1014F0008BE195E0ECC1DC0112968D919C911397E4
:101500000E946246962EB72EF80164817581CE0145
:101510000C960E94A04665EE76E0CE010C960E94E5
:101520008D46892B81F4288D243019F084E595E0CF
:10153000CEC1D80116968D919C9117970E94624654
:101540006B017C0103C0C12CD12C7601492C5B2C92
:101550008BE895E00E940A02EDEFFFE18081918126
:101560008415950519F483EA95E0B1C13396B0E28C
:10157000E339FB0799F78091FD1F9091FE1F80359D
:10158000910519F400E010E011C0EDEFFFE100E07B
:1015900010E080819181892B49F00F5F1F4F3396B6
:1015A00002331105B1F78CEB95E091C15801AA0CFB
:1015B000BB1CF501E00FF11FE350F04E5182408259
:1015C0006AEC76E0CE010C960E948D46892B49F09C
:1015D00067ED76E0CE010C960E948D46892B09F0CE
:1015E000FFC08091BA1E882329F01092BA1E612C88
:1015F000712C19C0E7E8F6E1612C712C80818823F9
:1016000091F02FEF621A720AF59639E163167104B0
:10161000A9F7F501E00FF11FE350F04E118210829F
:1016200088ED95E054C125E3269DC001279D900DCE
:101630001124FC01E957F94E90821182BC016757D1
:10164000794E4B01DB012C912160217C2F772C936B
:101650006AEC76E0CE010C9629A30E948D4629A162
:10166000892B51F42064F4012083F501E00FF11F70
:10167000E350F04E12820AC02F7BD4012C93F50167
:10168000E00FF11FE350F04E81E08283B0E54B168E
:101690005104C8F523E030E0C201B9010E947F4344
:1016A000F82FCB01B9010E947F43E82FC20169E006
:1016B00070E00E947F43CB01B9010E947F43482F15
:1016C000C2016BE170E00E947F43CB01B9010E942F
:1016D0007F43982FF13009F4F3E0E13009F4E3E0BF
:1016E000413009F443E0913009F493E024E0F29FA3
:1016F000E00D1124842F34E0E39F800D1124880F26
:10170000880F890F04C0F201E35AF84C808195E3F9
:10171000969DA001979D500D11244957594E27E0E1
:1017200030E090E0FA01E21BF30BBC01022E02C094
:10173000759567950A94E2F76170628721503109C7
:1017400088F725E3269DC001279D900D1124FC01FB
:10175000E957F94E13861486DC01A757B94E8C91D0
:1017600086FF0BC080E090E0FA01E80FF91F1586B4
:10177000019688309105C1F709C01586168617862F
:1017800081E0808B118A128A138A848B85E3869D7F
:10179000F001879DF00D1124E957F94E158A81E07B
:1017A000868B178A808F118E128E138E148E158E53
:1017B000168E178E10A211A282A313A214A215A234
:1017C00016A217A280A711A682A713A614A615A673
:1017D00086A717A680AB11AA82AB13AA14AABCC312
:1017E00065EE76E0CE010C960E948D46892B09F0BD
:1017F0004CC0E7E3FCE080E090E020813181232BC6
:1018000081F00196E859FF4F89319105B1F7F50153
:10181000E00FF11FE350F04E118210828BEE95E045
:1018200056C0F501E00FF11FE350F04E22E0228395
:1018300028E6289FF001299FF00D1124DF01AD5CFF
:10184000B34FCD92DD92ED92FC92139715965C9278
:101850004E92149716961C92E65CF34F908191601D
:1018600091789F779083118292819E7F9D7F928352
:1018700061E00E9450088091621690916316019673
:10188000909363168093621667C363EF76E0CE0190
:101890000C960E948D46892BE1F4EBE9F0E2812C55
:1018A000912C80819181892BB1F07FEF871A970A63
:1018B000EA51FF4F89E18816910499F7F501E00F8D
:1018C000F11FE350F04E118210828FEF95E00E94DD
:1018D000D10180E065C3F501E00FF11FE350F04E48
:1018E00083E0828386EE889DF001899DF00D1124AE
:1018F000DF01A556BF4D11965C924E9212961C9236
:10190000E256FF4D8081816081788F7780832181CD
:10191000207C2F7B2183C20101978F37910510F422
:101920002F7701C02068218386EE889D1001899D54
:10193000300C1124D101A556BF4D1D0115961C92E6
:1019400080E090E021E0F101E80FF91FDF01A255EE
:10195000BF4F61E02C93D8972C9326AF2683019636
:101960008231910581F726EE289DC001299D900DB9
:101970001124FC01E556FF4DDF01A054BF4F1C921E
:10198000D8971C92D8971C92108EDC01A156BF4D9F
:101990007C91AF014F535F4F9F0127573F4F8F01FE
:1019A0000F5A1F4FDA0177FD1EC01C92D9011C92FD
:1019B000D8011C92118EFC01E35AFE4D86E090E0A6
:1019C0009201082E02C0369527950A94E2F72170FD
:1019D0002193DF01D9972C93D8972C93D8972C93E8
:1019E000019770F756C06C93D9016C93D8016C9332
:1019F000618FDF01AE53BF4F6C93D8976C93D8972C
:101A00006C93628FFC01E25AFE4D8DE090E09201F2
:101A1000082E02C0369527950A94E2F7217021938B
:101A2000DF01D9972C93D8972C93D8972C930197B3
:101A30008730910561F786EE889D9001899D300D74
:101A40001124D901A556BF4DCD0187539F4FFC01ED
:101A50001082C897FC011082C897FC0110829196F1
:101A60001C92F901EB59FE4D87E090E09201082E9F
:101A700002C0369527950A94E2F721702193DF0181
:101A8000D9972C93D8972C93D8972C93019770F7CC
:101A900002C00BE101C004E2202F30E086EE889DF9
:101AA000A001899D500D1124CA0185569F4DFC014E
:101AB000E20FF31FDF01A255BF4F1C92D8971C9273
:101AC00016AE1682B9016F5F7F4F7B8B6A8BFB016D
:101AD000E80FF91F1682D9011296BD8BAC8BFD0160
:101AE000E80FF91F61E06683F9013396FF8BEE8BF7
:101AF000E80FF91F668364E0600F79E0700FA62F8E
:101B0000FC01EA0FF11D1682AF5FA713F9CF672E14
:101B1000712C798A688AF301E80FF91F1682EAE0CE
:101B2000AE2EA00EFA01E156FF4D808187FD1EC04A
:101B300080E090E01A2DE6EEE89DA001E99D500DB1
:101B4000112445565F4DF101E80FF91FA12FA80F91
:101B50003A016A0E711CD30172A0E18D7E261696A1
:101B60007C9201968830910571F71FC080E090E06B
:101B70001A2DE6EEE89DA001E99D500D1124455671
:101B80005F4DF101E80FF91FA12FA80F3A016A0E6E
:101B9000711CD30172A0618C7624E3A57E26169673
:101BA0007C9201968830910561F7E2E1E00F46EE04
:101BB000489DC001499D900D1124AC0145565F4DD3
:101BC000DA01AE0FB11DFD01A1E0A683A783EA896A
:101BD000FB89E40FF51FA6AFEC89FD89E40FF51F23
:101BE00016AEEE89FF89E40FF51F16AEFA01E60F77
:101BF000F11D16AE6F5F6713F9CFE889F989E40F1D
:101C0000F51F16AEFC01E156FF4D408147FD24C093
:101C100080E090E01AE0100F66EE689DA001699DDB
:101C2000500D112445565F4DB101680F791FE12F0A
:101C3000E80F5A01AE0EB11CDB01A65ABF4F6F5A16
:101C40007F4FAC91FB016081A627F501A6AF0196FD
:101C50008830910549F728C082509F4D42E1B42E4B
:101C6000B00E66EE689DA001699D500D1124455689
:101C70005F4DFC013A016A0C711C798A688A3C014B
:101C800062E1661A71080196BF0169507109D301BA
:101C90001C91DB016C91162760811627E889F98970
:101CA00016AFA394AB10E5CF62E1600F46EE489DFE
:101CB000C001499D900D1124AC0145565F4DFA01BC
:101CC000E60FF11D61E066AF67AFEA89FB89E40FBB
:101CD000F51FEA58FF4F6083EC89FD89E40FF51F7B
:101CE000EA58FF4F1082EE89FF89E40FF51FEA588A
:101CF000FF4F6083D9011496B98BA88BFD01E40FC7
:101D0000F51FEA58FF4F6083E5E0E00F6E2E712C5F
:101D10007E8E6D8EF301E40FF51FEA58FF4F10829F
:101D2000E6E0E00F2E2F30E03C8F2B8FF901E40F1F
:101D3000F51FEA58FF4F1082E7E0E00F6E2F70E0CA
:101D40007A8F698FFB01E40FF51FEA58FF4F10826D
:101D5000E8E0E00F6E2E712CFA01E60DF71DEA584F
:101D6000FF4F1082E9E0E00FAE2EB12CFA01EA0D30
:101D7000FB1DEA58FF4F10821AE0100FFC01E156DC
:101D8000FF4D208127FD1CC080E090E0612F910174
:101D9000280F391F762F780FFA01E70FF11DEA5847
:101DA000FF4FD901AE56BF4F27573F4F7C91D90106
:101DB0002C917227708301968830910541F725C0D8
:101DC0008A5C9E4D72E1700F612F58A34F8FFC010A
:101DD000AF8DB8A1A60FB11D9D012A583F4F3BA35F
:101DE0002AA3AC014251510901969F0129503109A2
:101DF000DA014C91D9012C91422720814227EAA196
:101E0000FBA140836F5F6713E2CF82E1800F96EE04
:101E1000989DA001999D500D1124BA0165567F4DE2
:101E20009B01280F311DF901EA58FF4F21E0208363
:101E300031962083EA89FB89E60FF71FE255FF4FB1
:101E40002083EC89FD89E60FF71FE255FF4F1082D2
:101E5000EE89FF89E60FF71FE255FF4F2083E889DF
:101E6000F989E60FF71FE255FF4F1082ED8DFE8DC9
:101E7000E60FF71FE255FF4F1082EB8DFC8DE60F4A
:101E8000F71FE255FF4F1082E98DFA8DE60FF71F1D
:101E9000E255FF4F1082FB01E60DF71DE255FF4FA3
:101EA0001082FB01EA0DFB1DE255FF4F1082FA0183
:101EB000E156FF4D808187FD1FC080E090E04AE041
:101EC000400F9101280F391F542F580FFB01E50FC8
:101ED000F11DE255FF4FD901A653BF4F2F533F4F7E
:101EE0005C91D9012C91522750830196883091053D
:101EF00041F712E1100F1FC0CA0182599E4D0E5EBC
:101F0000FC01DB01A10FB11D5D012EEAA20EB11C87
:101F1000AC014251510901969F0129503109DA0162
:101F20004C91D9012C91422720814227F501408311
:101F30001F5F1013E5CF26EE289DC001299D900D4F
:101F4000112485569F4D810F911DFC01E255FF4FD5
:101F500021E02083319620834AE0BE016F5F7F4FEE
:101F6000C2010E940D47BC0183E196E00E949502E8
:101F7000BE01645F7F4F86E997E00E949502288D3D
:101F8000243069F42AE0AE014F5F5F4FC701B6010C
:101F90000E94EB46BC0181E296E00E94950281E03E
:101FA000A3960FB6F894DEBF0FBECDBFDF91CF91E1
:101FB0001F910F91FF90EF90DF90CF90BF90AF9067
:101FC0009F908F907F906F905F904F903F902F9059
:101FD00008952F923F924F925F926F927F928F92CD
:101FE0009F92AF92BF92CF92DF92EF92FF920F93A8
:101FF0001F93CF93DF93CDB7DEB7C555D1090FB689
:10200000F894DEBF0FBECDBF8C016F83643020F427
:1020100087E296E00C942F1B83E796E00E940A0269
:10202000D80112968D919C9113970E9462466E8BF7
:102030007F8B888F998F2E893F893B8B2A8BD80184
:1020400014968D919C9115970E9444469D8B8C8B84
:10205000F801868197810E94444688873F81343009
:1020600009F4C9C0D80118968D919C9119970E94C6
:1020700044468F873F81353009F4CFC0D8011A9686
:102080008D919C911B970E9444468D873F813630ED
:1020900009F4D4C0D8011C968D919C911D970E9483
:1020A00044468B873F81373009F4D8C0D8011E964B
:1020B0008D919C911F970E94444689873F813830BB
:1020C00009F4DBC0D80150968D919C9151970E94E4
:1020D0004446C82E3F81393009F4DDC0D8015296FC
:1020E0008D919C9153970E9444468E873F813A3050
:1020F00009F4DEC0D80154968D919C9155970E94A9
:1021000044468C873F813B3009F4DEC0D8015696A7
:102110008D919C9157970E9444468A873F813C301D
:1021200009F4DDC0D80158968D919C9159970E9471
:102130004446D82E3F813D3009F4DBC0D8015A9681
:102140008D919C915B970E944446E82E3F813E30E2
:1021500009F4D8C0D8015C968D919C915D970E943E
:102160004446F82E3F813F3009F4D4C0D8015E9632
:102170008D919C915F970E944446682E3F8130313B
:1021800009F4CFC0D80190968D919C9191970E94AF
:102190004446882E3F81313109F4C9C0D801929656
:1021A0008D919C9193970E944446482E3F813231F5
:1021B00009F4C2C0D80194968D919C9195970E9484
:1021C0004446582E3F81333109F4BAC0D80196965F
:1021D0008D919C9197970E944446982E3F8134316F
:1021E00009F4B1C0D80198968D919C9199970E945D
:1021F0004446382EA9C0312C912C512C412C812CD5
:10220000612CF12CE12CD12C1A861C861E86C12C47
:1022100019861B861D861F8697C0312C912C512C48
:10222000412C812C612CF12CE12CD12C1A861C869E
:102230001E86C12C19861B861D8686C0312C912CCA
:10224000512C412C812C612CF12CE12CD12C1A86A3
:102250001C861E86C12C19861B8676C0312C912CBB
:10226000512C412C812C612CF12CE12CD12C1A8683
:102270001C861E86C12C198667C0312C912C512CCE
:10228000412C812C612CF12CE12CD12C1A861C863E
:102290001E86C12C59C0312C912C512C412C812CE3
:1022A000612CF12CE12CD12C1A861C861E864CC088
:1022B000312C912C512C412C812C612CF12CE12CB6
:1022C000D12C1A861C8640C0312C912C512C412CCB
:1022D000812C612CF12CE12CD12C1A8635C0312CAB
:1022E000912C512C412C812C612CF12CE12CD12CE6
:1022F0002BC0312C912C512C412C812C612CF12C98
:10230000E12C22C0312C912C512C412C812C612CA0
:10231000F12C1AC0312C912C512C412C812C612C88
:1023200013C0312C912C512C412C812C0DC0312CFF
:10233000912C512C412C08C0312C912C512C04C0D3
:10234000312C912C01C0312CEDEFFFE1198A188A54
:10235000808191814A895B898417950771F028896A
:1023600039892F5F3F4F398B288B339622333105C4
:1023700079F783E893E00C942F1B7C88E889F9892E
:10238000EE0FFF1F88899989E80FF91FE350F04E7F
:102390008281823008F0A8C2E7E8F6E100E010E0B0
:1023A000A02E808190E02A893B898217930751F003
:1023B0000F5F1F4FF5960931110591F788E993E0FA
:1023C0000C942F1B772049F08C899D8999270D96B5
:1023D0006AE070E00E949343762E388585E3809F03
:1023E000F001819FF00D1124323099F4DF01A957DB
:1023F000B94E11961C92E757F94E80818062808316
:1024000040E06A2D81E00E94472FCC24C394712CB8
:102410004BC0AF014757594E4A01DA018C91982FB2
:102420009170E957F94E3885391701F19181911171
:1024300037C040E06A2D86FF08C080E00E94472F29
:10244000D4018C9180688C9303C081E00E94472F57
:1024500085E3809FF001819FF00D1124E757F94E2D
:102460008081388530FB80F980831EC0818187158B
:1024700030F440E06A2D81E00E94602F07C078169A
:1024800028F440E06A2D81E00E94472F85E3809F79
:10249000F001819FF00D1124E957F94E718204C0BB
:1024A00088E896E00C942F1B3F81343021F185E3BE
:1024B000809FF001819FF00D1124DF01A757B94ED5
:1024C0002C9121FB442740F94A8F1B8E3F85832F97
:1024D00090E04A8D5B8D4817590769F0822F30FBD9
:1024E00081F98C93E957F94E3387348740E06A2DA0
:1024F00081E00E94602FE72DF0E0E752F74CB080BA
:1025000085E3809FF001819FF00D1124E757F94E7C
:10251000808186FF1EC087FDB0904B1C85E3809FA5
:102520009001819F300D11242957394E87E090E0AA
:102530004B2D50E0F901E81BF90BDA01082E02C01F
:10254000B595A7950A94E2F7A170A48B019790F72F
:1025500035C099EF970D80FD06C0983058F086E0A1
:10256000871550F405C0983048F096E0971540F470
:102570008FEF07C08CEC05C08FEC03C080E301C077
:1025800083E38B258575B82685E3809F9001819F25
:10259000300D11242957394E87E090E06B2D70E003
:1025A000F901E81BF90BAB01082E02C055954795C0
:1025B0000A94E2F74170448B019790F785E3809F7E
:1025C0004001819F900C1124F401E757F94E60817E
:1025D00062FB662760F9272D4B2D81E00E941408CD
:1025E000F401E957F94E4F0127E030E090E0F401A3
:1025F000E21BF30BAC01022E02C0559547950A94DD
:10260000E2F74170448F2150310988F785E3809FBC
:10261000F001819FF00D1124E757F94E608163FBB3
:10262000662760F9272D4B2D82E00E94140827E0D1
:1026300030E090E0F401E21BF30BAC01022E02C08B
:10264000559547950A94E2F7417044A3215031090A
:1026500088F785E3809FF001819FF00D1124E757F3
:10266000F94E608162956170272D4B2D83E00E94A9
:10267000140827E030E090E0F401E21BF30BAC011A
:10268000022E02C0559547950A94E2F7417044A77F
:102690002150310988F785E3809FF001819FF00D7B
:1026A0001124E757F94E608165FB662760F9272DF5
:1026B0004B2D84E00E94140827E030E090E0F40104
:1026C000E21BF30BAC01022E02C0559547950A940C
:1026D000E2F7417044AB2150310988F73F81343033
:1026E00009F4C1C785E3809FF001819FF00D11249B
:1026F000E757F94E808182FB882780F98C8F1D8EE9
:102700003D85832F90E04C8D5D8D4817590751F121
:10271000272D4B2D632F81E00E94140827E030E025
:1027200090E0F401E21BF30BAC01022E02C05595C0
:1027300047950A94E2F74170448F2150310988F798
:1027400085E3809FF001819FF00D1124E757F94E3A
:1027500080813D8530FB82F9808341E06A2D81E0F4
:102760000E94602F85E3809FF001819FF00D11246E
:10277000E757F94E808183FB882780F98E8F1F8E63
:102780003B85832F90E04E8D5F8D4817590751F19F
:10279000272D4B2D632F82E00E94140827E030E0A4
:1027A00090E0F401E21BF30BAC01022E02C0559540
:1027B00047950A94E2F7417044A32150310988F704
:1027C00085E3809FF001819FF00D1124E757F94EBA
:1027D00080813B8530FB83F9808342E06A2D81E074
:1027E0000E94602F85E3809FF001819FF00D1124EE
:1027F000E757F94E80818295817088A319A23985A7
:10280000832F90E048A159A14817590751F1272D6E
:102810004B2D632F83E00E94140827E030E090E006
:10282000F401E21BF30BAC01022E02C05595479553
:102830000A94E2F7417044A72150310988F785E3F3
:10284000809FF001819FF00D1124E757F94E8081A0
:10285000398530FB84F9808343E06A2D81E00E9452
:10286000602F85E3809FF001819FF00D1124E757D1
:10287000F94E808185FB882780F98AA31BA28C2DC5
:1028800090E04AA15BA14817590721F438853230FE
:1028900009F0EDC6272D4B2D6C2D84E00E94140805
:1028A00027E030E090E0F401E21BF30BAC01022ED4
:1028B00002C0559547950A94E2F7417044AB215008
:1028C000310988F785E3809FF001819FF00D112485
:1028D000E757F94E8081C0FA85F9808344E06A2D7C
:1028E00081E00E94472FC3C6823009F084C2E7E32B
:1028F000FCE000E010E0202E808191812A893B8954
:102900008217930751F00F5F1F4FE859FF4F0931AE
:10291000110589F78DEC93E0A2C6388588E6809F83
:10292000F001819FF00D1124323051F4ED5CF34F32
:10293000168240E0602F82E00E94472F712C35C044
:10294000AF01465C534F5A01DA018C918170ED5C06
:10295000F34F3885381779F086818111A1CD40E099
:10296000602F82E00E94472FD5018C91388530FB83
:1029700080F98C931AC08681871530F440E0602F6F
:1029800082E00E94602F07C0781628F440E0602F94
:1029900082E00E94472F88E6809FF001819FF00D22
:1029A0001124ED5CF34F4C8946833F81343009F4A8
:1029B0001DC288E6809F5001819FB00C1124A501A3
:1029C000465C534F5A01DA018C91869581708CA335
:1029D0001DA23D85832F90E02CA13DA1281739072A
:1029E00059F040E0622D82E00E94602FD5018C9169
:1029F0003D8530FB81F98C9388E6809F5001819F53
:102A0000B00C1124A501465C534F5A01DA018C9198
:102A100082FB882780F98EA31FA23B85832F90E03D
:102A20002EA13FA12817390759F040E0622D82E01E
:102A30000E94602FD5018C913B8530FB82F98C93ED
:102A400088E6809F5001819FB00C1124A501465C4F
:102A5000534F5A01DA018C9183FB882780F988A7AC
:102A600019A63985832F90E028A539A5281739079D
:102A700059F040E0622D82E00E94602FD5018C91D8
:102A8000398530FB83F98C9388E6809F5001819FC4
:102A9000B00C1124A501465C534F5A01DA018C9108
:102AA000829581708AA71BA68C2D90E02AA53BA554
:102AB0002817390751F040E0622D82E00E94602F14
:102AC000D5018C91C0FA84F98C9388E6809F5001DF
:102AD000819FB00C1124F501E65CF34F5F0180810A
:102AE00085FB882780F98CA71DA62E85822F90E074
:102AF0002CA53DA52817390759F040E0622D82E04A
:102B00000E94602FD5018C912E8520FB85F98C9336
:102B100088E6809F5001819FB00C1124A501465C7E
:102B2000534F5A01DA018C9186FB882780F98EA7D2
:102B30001FA62C85822F90E02EA53FA528173907C8
:102B400059F040E0622D82E00E94602FD5018C9107
:102B50002C8520FB86F98C9388E6809F5001819F0D
:102B6000B00C1124A501465C534F5A01DA012C9197
:102B700027FB222720F930E0BA858B2F90E0281719
:102B8000390759F040E0622D82E00E94602FF50184
:102B900080812A8520FB87F9808388E6809F500109
:102BA000819FB00C1124F501E55CF34F80818170A9
:102BB00088AB19AA8D2D90E028A939A928173907C3
:102BC00061F040E0622D82E00E94602FF501E65C3A
:102BD000F34F8181D0FA80F9818388E6809F50018C
:102BE000819FB00C1124F501E55CF34F808186953F
:102BF00081708AAB1BAA8E2D90E02AA93BA92817C9
:102C0000390761F040E0622D82E00E94602FF501FB
:102C1000E65CF34F8181E0FA81F9818388E6809F49
:102C20005001819FB00C1124F501E55CF34F8081C8
:102C300082FB882780F98CAB1DAA8F2D90E02CA9F0
:102C40003DA92817390761F040E0622D82E00E941B
:102C5000602FF501E65CF34F8181F0FA82F9818300
:102C600088E6809F5001819FB00C1124F501E55C3E
:102C7000F34F808183FB882780F98EAB1FAA862DB6
:102C800090E02EA93FA92817390761F040E0622D96
:102C900082E00E94602FF501E65CF34F818160FACB
:102CA00083F9818388E6809F5001819FB00C1124B5
:102CB000F501E55CF34F80818295817088AF19AE94
:102CC000882D90E028AD39AD2817390761F040E034
:102CD000622D82E00E94602FF501E65CF34F818156
:102CE00080FA84F9818388E6809F5001819FB00C2F
:102CF0001124F501E55CF34F808185FB882780F97D
:102D00008AAF1BAE842D90E02AAD3BAD2817390762
:102D100061F040E0622D82E00E94602FF501E65CE8
:102D2000F34F818140FA85F9818388E6809F5001C5
:102D3000819FB00C1124F501E55CF34F808186FB87
:102D4000882780F98CAF1DAE852D90E02CAD3DAD70
:102D50002817390761F040E0622D82E00E94602F61
:102D6000F501E65CF34F818150FA86F9818388E6AC
:102D7000809F5001819FB00C1124F501E55CF34F59
:102D8000208127FB222720F930E0892D90E02817A9
:102D9000390761F040E0622D82E00E94602FF5016A
:102DA000E65CF34F818190FA87F9818388E6809F02
:102DB0005001819FB00C1124F501E45CF34F808138
:102DC00081708EAF1FAE832D90E02EAD3FAD2817E2
:102DD000390761F040E0622D82E00E94602FF5012A
:102DE000E65CF34F828130FA80F982836885822D18
:102DF0000E9450083CC4833009F02FC4EBE9F0E294
:102E0000412C512C142D808191812A893B89821774
:102E1000930761F03FEF431A530AEA51FF4F49E12C
:102E20004416510479F780E094E019C42C893D8957
:102E30003327C901880F991F820F931F0C966EE0EC
:102E400070E00E947F43062F762E388586EE849DA3
:102E5000F001859DF00D1124323051F4E556FF4DFF
:102E6000128240E0642D83E00E94472F712C34C011
:102E7000AF0142565F4D1A01DA018C918170E5561F
:102E8000FF4D3885381779F08281811109CB40E0F8
:102E9000642D83E00E94472FD1018C91388530FB4F
:102EA00080F98C9319C08281861730F440E0642D3C
:102EB00083E00E94602F07C0681728F440E0642D6B
:102EC00083E00E94472F86EE849DF001859DF00DE2
:102ED0001124E556FF4D02833F81343009F4FEC1D1
:102EE00086EE849D1001859D300C1124A10142566F
:102EF0005F4D1A01DA018C9181FBAA24A0F8B12C54
:102F00003F85832F90E0A816B90659F041E0612F64
:102F100083E00E94602FD1018C913F8530FB81F9C5
:102F20008C9386EE849D5001859DB00C1124A501E3
:102F300042565F4D5A01DA018C9182FB882780F955
:102F400021968FAF219722961FAE22973D85832F22
:102F500090E022962EAD3FAD22972817390759F001
:102F600041E0612F83E00E94602FD5018C913D8567
:102F700030FB82F98C9386EE849D5001859DB00CC8
:102F80001124A50142565F4D5A01DA018C9183FB51
:102F9000882780F923968FAF239724961FAE249716
:102FA0003B85832F90E024962EAD3FAD24972817C4
:102FB000390759F041E0612F83E00E94602FD5016D
:102FC0008C913B8530FB83F98C9386EE849D500178
:102FD000859DB00C1124A50142565F4D5A01DA01BE
:102FE0008C918295817025968FAF259726961FAE7E
:102FF00026973985832F90E026962EAD3FAD2697F4
:103000002817390759F041E0612F83E00E94602FB3
:10301000D5018C91398530FB84F98C9386EE849DA3
:103020005001859DB00C1124A50142565F4D5A01F7
:10303000DA018C9185FB882780F927968FAF279737
:1030400028961FAE28978C2D90E028962EAD3FAD88
:1030500028972817390751F041E0612F83E00E943B
:10306000602FD5018C91C0FA85F98C9386EE849DF2
:103070005001859DB00C1124F501E256FF4D5F0112
:10308000808186FB882780F929968FAF29972A9619
:103090001FAE2A972E85822F90E02A962EAD3FAD47
:1030A0002A972817390759F042E0612F83E00E94E0
:1030B000602FD5018C912E8520FB86F98C9386EEAE
:1030C000849D5001859DB00C1124A50142565F4D91
:1030D0005A01DA012C9127FB222720F930E0BC8528
:1030E0008B2F90E02817390759F042E0612F83E0D9
:1030F0000E94602FF50180812C8520FB87F9808359
:1031000086EE849D5001859DB00C1124F501E15699
:10311000FF4D808181702B968FAF2B972C961FAE21
:103120002C973A85832F90E02C962EAD3FAD2C97AF
:103130002817390769F042E0612F83E00E94602F71
:10314000F501E256FF4D81813A8530FB80F981839C
:1031500086EE849D5001859DB00C1124F501E15649
:10316000FF4D8081869581702D968FAF2D972E967D
:103170001FAE2E978D2D90E02E962EAD3FAD2E9743
:103180002817390761F042E0612F83E00E94602F29
:10319000F501E256FF4D8181D0FA81F9818386EEF7
:1031A000849D5001859DB00C1124F501E156FF4D21
:1031B000808182FB882780F92F968FAF2F976096AA
:1031C0001FAE60978E2D90E060962EAD3FAD60975C
:1031D0002817390761F043E0612F83E00E94602FD8
:1031E000F501E256FF4D8181E0FA82F9818386EE96
:1031F000849D5001859DB00C1124F501E156FF4DD1
:10320000808183FB882780F961968FAF61976296F2
:103210001FAE62978F2D90E062962EAD3FAD629704
:103220002817390761F043E0612F83E00E94602F87
:10323000F501E256FF4D8181F0FA83F9818386EE34
:10324000849D5001859DB00C1124F501E156FF4D80
:1032500080818295817063968FAF639764961FAE6D
:103260006497862D90E064962EAD3FAD6497281745
:10327000390761F043E0612F83E00E94602FF50180
:10328000E256FF4D818160FA84F9818386EE849D48
:103290005001859DB00C1124F501E156FF4D808150
:1032A00085FB882780F965968FAF659766961FAE78
:1032B0006697882D90E066962EAD3FAD66972817ED
:1032C000390761F043E0612F83E00E94602FF50130
:1032D000E256FF4D818180FA85F9818386EE849DD7
:1032E000F001859DF00D1124E156FF4D808187FD91
:1032F00002C060E001C069E070E086EE849D90014C
:10330000859D300D1124F901E556FF4DE60FF71F9D
:1033100012A281E083A3D901A256BF4D9C91917066
:1033200094A34885423031F415A216A217A210A624
:1033300081A71AC0E72DF0E0EC59F94EA081260FC5
:10334000371F25563F4D84E090E0B0E0F901E81BBF
:10335000F90BAD01082E02C0559547950A94E2F786
:10336000417041A7019790F786EE849D9001859D5D
:10337000300D1124F901E156FF4D808125563F4D56
:1033800087FD11C080E090E0F901E80FF91F42A12C
:10339000518D452743A7019688309105A9F73F81B4
:1033A000343089F464C180E090E0F901E80FF91F3E
:1033B00042A1518D452753A5452744AB019688303E
:1033C000910599F7ECCF86EE849D9001859D300D97
:1033D0001124C90185569F4DDC01A60FB71FA35AC2
:1033E000BF4FF901E256FF4D4081469541704C9325
:1033F0004B0140E2840E911CDC01A80DB91D4081F7
:1034000045FB442740F9DE964C935B0151E2A50E43
:10341000B11CDC01AA0DBB1D408142954170DE96B6
:103420004C93AB014E5D5F4FDC01A40FB51F1081C3
:1034300013FB112710F9DE961C936D5D7F4FDC01A5
:10344000A60FB71FE081E2FBEE27E0F9DE96EC93D2
:10345000F901E156FF4DE081E7FD57C020E030E083
:10346000FC01E20FF31F7F01A3E6EA0EF11C8F01BE
:10347000065A1F4FEF5AFF4FD8011C91E0811E27BB
:10348000F70110832F5F3F4F2830310549F786EE53
:10349000849D9001859D300D1124C90185569F4D55
:1034A000DC01A80DB91DAA58BF4FF901E156FF4D27
:1034B0001081169511701C93DC01AA0DBB1DAA5832
:1034C000BF4F108111701C938C01040F151F0A58F7
:1034D0001F4FD901A256BF4D1D01FC90F7FAFF24E2
:1034E000F0F8D801FC928C01060F171F0A581F4FE5
:1034F000D101FC90F6FAFF24F0F8D801FC92E081AB
:10350000E7FD69C020E030E016C0F901E95FFE4D3B
:1035100020E0CF0142978F010B511109DC018C9102
:10352000D8019C91892752969C91892781932F5F7E
:10353000283079F7ACCFFC01E20FF31F7F01BBE924
:10354000EB0EF11C8F010E561F4FE757FF4FD801AE
:103550001C91E0811E27F70110832F5F3F4F283019
:10356000310549F786EE849D9001859D300D11242B
:10357000C90185569F4D880E991ED401A255BF4F93
:10358000F901E156FF4D108115FB112710F91C932D
:10359000A80EB91ED501A255BF4F1081129511700A
:1035A0001C93480F591FDA01A255BF4F408143FBBE
:1035B000442740F94C93680F791FDB01A255BF4F98
:1035C000408142FB442740F94C93408147FD2FC086
:1035D00020E030E016C0F901E15CFE4D20E0CF01B3
:1035E00042978F010B511109DC018C91D8019C91FC
:1035F000892752969C91892781932F5F283079F7EC
:10360000B1CFAC01420F531FFA01ED52FF4FDA0167
:10361000A653BF4F4F535F4F6C91DA014C91642713
:1036200060832F5F3F4F2830310559F720C0F901E3
:10363000E958FE4D20E0CF014297AF014B515109AF
:10364000DC018C91DA019C91892752969C91892703
:1036500081932F5F283079F70AC081EA96E00E94B3
:10366000D10180E05DC03885323009F4FAC84AE003
:10367000BE016F5F7F4F8E899F890E940D47BC01FD
:1036800083E196E00E949502E889F989EE0FFF1F19
:1036900028893989E20FF31FE350F04E828181308F
:1036A00059F038F0823059F0833069F489EE96E0B1
:1036B00008C080EC96E005C08DEC96E002C08BED72
:1036C00096E00E940A02672D87EF96E00E94B903F8
:1036D000688584E097E00E94B9036F8585E197E0F3
:1036E0000E94B9036D858FE197E00E94B9036B8555
:1036F00089E297E00E94B903698583E397E00E941D
:10370000B9036C2D8DE397E00E94B903609189168F
:1037100066FB662760F987E497E00E94B90381E0C1
:10372000CB5ADF4F0FB6F894DEBF0FBECDBFDF918F
:10373000CF911F910F91FF90EF90DF90CF90BF90AE
:10374000AF909F908F907F906F905F904F903F9041
:103750002F9008958F929F92AF92BF92CF92DF9257
:10376000EF92FF920F931F93CF93DF93613021F07D
:1037700086E597E00E94D101C7E8D6E108E8C02EAF
:1037800006E1D02E00E010E085E3982E95E5A92E05
:10379000B12C802E8881882309F4B5C0F6011082EF
:1037A000909E7001919EF00C1124C7018757994E8D
:1037B0007C01FC0180818062808340E0602F81E099
:1037C0000E94472FF701808186FF16C080E090E0BD
:1037D000FE01E80FF91F1586019688309105C1F7A3
:1037E000909EF001919EF00D1124E757F94E8081D3
:1037F00082FD19C040EF18C080FD02C045E401C041
:1038000041E187E090E050E0FE01E81BF90B9A01EE
:10381000082E02C0359527950A94E2F72170248B73
:10382000019790F7DDCF43EF457587E090E050E0DA
:10383000FE01E81BF90B9A01082E02C03595279569
:103840000A94E2F72170248F019790F7909EF0017F
:10385000919EF00D1124E757F94E808183FF02C03D
:103860004FE001C04CE0457587E090E050E0FE017C
:10387000E81BF90B9A01082E02C0359527950A948A
:10388000E2F7217024A3019790F7909EF001919E9A
:10389000F00D1124E757F94E808184FF02C04FE3F9
:1038A00001C04CE3457587E090E050E0FE01E81B65
:1038B000F90B9A01082E02C0359527950A94E2F774
:1038C000217024A7019790F787E090E0FE01E81BA4
:1038D000F90B9501082E02C0359527950A94E2F759
:1038E000217024AB019790F744E0682D81E00E949D
:1038F000472F0F5F1F4FE59685E3C80ED11C093196
:10390000110509F046CFC9E3DCE010E0FE01329773
:1039100020813181232B79F0188240E0612F82E0F1
:103920000E94472F62E0812F0E9450081F5FC859F4
:10393000DF4F193159F70BE910E2C4ECD0E2F12C5A
:10394000EE24E394F80180819181892B39F1FE0105
:10395000B797108240E06F2D83E00E94472FFE0151
:1039600034971082319610823196108231961082EF
:10397000E88280E090E0F801E80FF91F22A1318D84
:10398000232723A7019688309105A9F7F3940A51BC
:103990001F4FCA51DF4F99E1F912D4CF8CE697E05F
:1039A0000E940A0281E0DF91CF911F910F91FF9059
:1039B000EF90DF90CF90BF90AF909F908F90089541
:1039C0000F931F93CF93DF9391E09093ED38109274
:1039D000EE381092EF381092F0381092F1381092C1
:1039E000F2381092F3381092F4381092F538909320
:1039F000F6389093F7389093F8381092F9389093FE
:103A0000FA389093FB38282F30E048E6849FF00185
:103A10001124ED5CF34F64817581ECEFF8E38DE0E8
:103A200090E0AB01082E02C0569547950A94E2F744
:103A3000417041930197A8F788E6829FF001839F28
:103A4000F00D1124ED5CF34F40815181628173814F
:103A5000EAE0F9E32FE130E0DB01CA01022E04C005
:103A6000B695A795979587950A94D2F7817081931B
:103A70002150310988F710922A3910922B3910926F
:103A80002C3910922D3910922E3910922F39109214
:103A9000303910923139EDEEF8E38FE790E0880F7E
:103AA000991F2191820F911D90FF03C0992727E054
:103AB000822749E3E233F40791F787FB992790F9CE
:103AC00090932A3986FB992790F990932B3985FB9F
:103AD000992790F990932C3984FB992790F990932A
:103AE0002D3983FB992790F990932E3982FB9927E2
:103AF00090F990932F3981FB992790F99093303961
:103B0000817080933139EDEEF8E320E030E015E488
:103B1000AF014D5E5843812F90E0481759070CF5CF
:103B200061916130D9F42F5F3F4F2830310581F723
:103B300020E030E0EC01C351D74C21503109BC01E9
:103B4000620F731F461757073CF4DE01A20FB31F25
:103B50006C9111966C93F1CF10821F5F20E030E0E2
:103B6000D7CFFC01E351F74C108222E0218312826F
:103B7000138224831582168227831086118622875A
:103B8000FC013B96DF01A351B74C1C9293E090934C
:103B9000BB0B84E08093BC0B2093BD0B9093BE0BBA
:103BA0008093BF0B2093C00B60E070E020E030E01A
:103BB00086E090E0C3E0D4E012E02E173F0741F426
:103BC000FC01E554F44F84E0808386E0818366C085
:103BD000D901A351B74C0C91A9014F5F5F4F013040
:103BE00021F461157105C1F42EC001113AC0DA014A
:103BF000A351B74CAC91A11105C0DC01A554B44F41
:103C0000DC932DC0A13029F5DC01A554B44FCC9331
:103C1000019661E070E03CC0DA01A351B74C0C9111
:103C200001110CC06130710599F5DC01A554B44F48
:103C30001C9301969A0160E070E02AC0013041F5C2
:103C40006130710529F5DC01A554B44F0C93019640
:103C50001FC0A230E9F4DC01A554B44FCC93019607
:103C600016C00230A9F4DA01A351B74CAC91A111EE
:103C70000FC0DC01A554B44F0C9301964E175F079B
:103C800031F4FC01E554F44F26E0208307C09A018B
:103C90002F5F3F4FE217F3070CF08FCF81E0DF91EA
:103CA000CF911F910F910895BF92CF92DF92EF9223
:103CB000FF920F931F93CF93DF9300D000D000D0DB
:103CC000CDB7DEB77C010FEF1FE1D12CF8013297A1
:103CD0006081718161157105A1F084E897E00E940F
:103CE0009903F801608182E997E00E949903D394D7
:103CF0000D5F1F4FF2E3DF12E9CF81EA97E00E94E8
:103D0000F7016D2D8BEB97E00E949903F70162811B
:103D10007381CE0101960E94A04607E816E158E89B
:103D2000E52E56E1F52ED12CF801C080CC2011F102
:103D3000D394F9E1DF1205C08DEC97E00E94F70102
:103D400019C060EE77E0CE0101960E948D46892B66
:103D500059F46C2D8DEE97E00E949903F701608174
:103D60008CEF96E00E9499030B5C1F4FF5E3EF0E7A
:103D7000F11CDACF6D2D86EE97E00E94990307E3E0
:103D80001CE049E3E42E4CE0F42EB12CF801C08095
:103D9000D180C114D10411F1B394F9E1BF1205C06F
:103DA00086EF97E00E94F70119C060EE77E0CE0140
:103DB00001960E948D46892B59F46C2D81E198E083
:103DC0000E949903F70160818CEF96E00E949903AD
:103DD00008591F4FF8E6EF0EF11CD8CF6B2D8AE083
:103DE00098E00E9499030BE910E23DE9E32E30E2EE
:103DF000F32EB12CF801C080D180C114D10411F18F
:103E0000B394F9E1BF1205C08BE198E00E94F7017D
:103E100019C060EE77E0CE0101960E948D46892B95
:103E200059F46C2D86E398E00E949903F7016081B4
:103E30008CEF96E00E9499030A511F4FF6EEEF0EA9
:103E4000F11CD8CF6B2D8FE298E00E9499038091EE
:103E500093209091942040919820242F30E0682F57
:103E6000641B821793070CF46C5980E498E00E945D
:103E7000990381E026960FB6F894DEBF0FBECDBF42
:103E8000DF91CF911F910F91FF90EF90DF90CF9036
:103E9000BF900895CF92DF92EF92FF920F931F93FE
:103EA000CF93DF9300D01F92CDB7DEB77C0120E225
:103EB0003CE240E029833A834B83FC0101900020DF
:103EC000E9F7DC01319780E090E0AE17BF0739F0E9
:103ED0002D912C3211F02032C1F70196F6CF880FC8
:103EE000991F0E941D458C01BE016F5F7F4FC70166
:103EF0000E948946F801918380836801E12CF12CAE
:103F0000F601819191916F01892B71F0FFEFEF1A0A
:103F1000FF0ABE016F5F7F4F80E090E00E948946FC
:103F2000F60191838083ECCFF801C080D18062E5F7
:103F300078E0C6010E948D46892B39F066E578E06D
:103F4000C6010E948D46892B29F46E2DC8010E945E
:103F500075048AC069E578E0C6010E948D46892B08
:103F600039F06FE578E0C6010E948D46892B29F46F
:103F70006E2DC8010E94AF0477C069E172E0C601EE
:103F80000E948D46892B29F46E2DC8010E94E604FB
:103F90006BC062E678E0C6010E948D46892B29F449
:103FA0006E2DC8010E946C055FC065E678E0C60111
:103FB0000E948D46892B29F46E2DC8010E94F604BB
:103FC00053C069E678E0C6010E948D46892B29F42A
:103FD0006E2DC8010E94E90F47C06CE678E0C6016B
:103FE0000E948D46892B29F46E2DC8010E945A0A21
:103FF0003BC060E778E0C6010E948D46892B29F41A
:104000006E2DC8010E94C2072FC064E778E0C60188
:104010000E948D46892B29F46E2DC8010E94AD06A1
:1040200023C066E677E0C6010E948D46892B29F4FD
:104030006E2DC8010E94AA1B17C06FE778E0C60169
:104040000E948D46892B29F46E2DC8010E94541EB2
:104050000BC06BE878E0C6010E948D46892B31F4D5
:104060006E2DC8010E94D707F82E01C0F12CC8019F
:104070000E94B5458F2D0F900F900F90DF91CF913B
:104080001F910F91FF90EF90DF90CF900895809156
:1040900096208B3038F08FE890E49093090180935C
:1040A00008010895E0910601F091070109948091BB
:1040B00096208B3038F08DE89EE390930901809331
:1040C00008010895E0910601F0910701099483E940
:1040D00098E00E940A0286EF98E00E940A0286EFAA
:1040E00098E00E944A1F811104C084EA98E00C9471
:1040F000D10108958091113790E001968170992740
:104100008093BB1E80915B09811106C0E09108017C
:10411000F09109010995F6CF10925A0910925B09A6
:1041200008951F920F920FB60F9211240BB60F92A3
:104130002F933F934F935F936F937F938F939F93AF
:10414000AF93BF93EF93FF93E8E6F0E080818E7F1B
:10415000808381E080935E160E944001FF91EF9181
:10416000BF91AF919F918F917F916F915F914F918F
:104170003F912F910F900BBE0F900FBE0F901F908D
:1041800018951F920F920FB60F9211240BB60F9233
:104190002F933F934F935F936F937F938F939F934F
:1041A000AF93BF93EF93FF9380915A09813089F4C5
:1041B0008091133790911437892B59F48091683985
:1041C0008093890080916739809388000E9418410C
:1041D000A8C080915A09811137C0809113379091FE
:1041E0001437892B89F58091113790E00196817001
:1041F00099278093113781E080935A09E091113714
:10420000F0E0E555F14E8081882349F0813079F462
:1042100080916839809389008091673906C08091C8
:104220006C398093890080916B3980938800E0918C
:104230001137F0E0EE0FFF1FE255F14E80819181C2
:1042400090935C1680935B164091113780911337E1
:10425000909114372CE231E0429FF001439FF00D22
:104260001124E80FF91FE45AF64F8081E0911137CD
:10427000F0E0E555F14E9081913079F028F09230E0
:10428000D1F0933091F13EC0813021F048F40E948A
:10429000F04038C00E94FA4035C0813049F028F023
:1042A000893081F50E9418412DC00E9404412AC026
:1042B0000E940E4127C0833091F038F4813061F0C4
:1042C000823001F50E9435411DC0843059F089309B
:1042D000C9F40E947A4116C00E941E4113C00E9478
:1042E0004C4110C00E9463410DC0813049F028F05C
:1042F000893041F40E94BB4105C00E948D4102C03B
:104300000E94A441809113379091143701966091D7
:104310005B1670915C160E947F43909314378093D4
:104320001337FF91EF91BF91AF919F918F917F9143
:104330006F915F914F913F912F910F900BBE0F9016
:104340000FBE0F901F9018951F920F920FB60F92ED
:1043500011240BB60F922F933F934F935F936F935C
:104360007F938F939F93AF93BF93CF93EF93FF93DD
:10437000C091B2001092B2008091501C803120F0A8
:104380001092501C0C94952E8C2F90E0479744F47B
:104390008091501C8F5F8093501C21E030E004C05E
:1043A0001092501C20E031E08091EA3890E0FC014E
:1043B0003197E837F10510F00C94952EEA5BFF4F2A
:1043C0000C94A743313011F482E003C0213019F47A
:1043D00083E08093EA3810924C1C10924D1C10928E
:1043E0004E1C10924F1C0C94952E213029F483E022
:1043F0008093EA380C94952E8091EA3880935D166C
:10440000C093611681E08093EA380C94952E313088
:1044100029F484E08093EA380C94952E8091EA3850
:1044200080935D16C093611681E08093EA380C9406
:10443000952E313029F485E08093EA380C94952E3E
:104440008091EA3880935D16C093611681E0809375
:10445000EA380C94952E213029F486E08093EA38CE
:104460000C94952E8091EA3880935D16C093611666
:1044700081E08093EA380C94952E313029F487E05E
:104480008093EA380C94952E8091EA3880935D16DB
:10449000C093611681E08093EA380C94952E213008
:1044A00029F488E08093EA380C94952E313029F471
:1044B00082E08093EA380C94952E8091EA388093BC
:1044C0005D16C093611681E08093EA380C94952EB6
:1044D000213029F489E08093EA380C94952E80915C
:1044E000EA3880935D16C093611681E08093EA38C4
:1044F0000C94952E313029F48AE08093EA380C949C
:10450000952E8091EA3880935D16C093611681E004
:104510008093EA380C94952E313029F48BE0809307
:10452000EA380C94952E8091EA3880935D16C093FA
:10453000611681E08093EA380C94952E313029F48D
:104540008CE08093EA380C94952E8091EA38809321
:104550005D16C093611681E08093EA380C94952E25
:10456000313029F48DE08093EA380C94952E8091B7
:10457000EA3880935D16C093611681E08093EA3833
:104580000C94952E313029F48EE08093EA380C9407
:10459000952E8091EA3880935D16C093611681E074
:1045A0008093EA380C94952E313029F48FE0809373
:1045B000EA380C94952E8091EA3880935D16C0936A
:1045C000611681E08093EA380C94952E313029F4FD
:1045D00080E18093EA380C94952E8091EA3880939C
:1045E0005D16C093611681E08093EA380C94952E95
:1045F000313029F481E18093EA380C94952E809132
:10460000EA3880935D16C093611681E08093EA38A2
:104610000C94952E213029F482E18093EA380C9491
:10462000952E8091EA3880935D16C093611681E0E3
:104630008093EA380C94952E213029F483E18093FD
:10464000EA380C94952E8091EA3880935D16C093D9
:10465000611681E08093EA380C94952E213029F47C
:1046600084E18093EA380C94952E8091EA38809307
:104670005D16C093611681E08093EA380C94952E04
:10468000213029F485E18093EA380C94952E8091AD
:10469000EA3880935D16C093611681E08093EA3812
:1046A0000C94952E213029F486E18093EA380C94FD
:1046B000952E8091EA3880935D16C093611681E053
:1046C0008093EA380C94952E213029F487E1809369
:1046D000EA380C94952E8091EA3880935D16C09349
:1046E000611681E08093EA380C94952E313029F4DC
:1046F00088E18093EA380C94952E8091EA38809373
:104700005D16C093611681E08093EA380C94952E73
:10471000213029F489E18093EA380C94952E809118
:10472000EA3880935D16C093611681E08093EA3881
:104730000C94952E213029F48AE18093EA380C9468
:10474000952E8091EA3880935D16C093611681E0C2
:104750008093EA380C94952E213029F48BE18093D4
:10476000EA380C94952E8091EA3880935D16C093B8
:10477000611681E08093EA380C94952E213029F45B
:104780008CE18093EA380C94952E8091EA388093DE
:104790005D16C093611681E08093EA380C94952EE3
:1047A000313019F48EE18093EA38213011F00C9405
:1047B000952E8DE18093EA380C94952E213029F4C2
:1047C0008EE18093EA380C94952E8091EA3880939C
:1047D0005D16C093611681E08093EA380C94952EA3
:1047E000313019F480E28093EA38213011F00C94D2
:1047F000952E8FE18093EA380C94952E213029F480
:1048000080E28093EA380C94952E8091EA38809368
:104810005D16C093611681E08093EA380C94952E62
:10482000313019F482E28093EA38213011F00C948F
:10483000952E81E28093EA380C94952E213029F44C
:1048400082E28093EA380C94952E8091EA38809326
:104850005D16C093611681E08093EA380C94952E22
:10486000313019F484E28093EA38213011F00C944D
:10487000952E83E28093EA380C94952E213029F40A
:1048800084E28093EA380C94952E8091EA388093E4
:104890005D16C093611681E08093EA380C94952EE2
:1048A000313019F486E28093EA38213011F00C940B
:1048B000952E85E28093EA380C94952E213029F4C8
:1048C00086E28093EA380C94952E8091EA388093A2
:1048D0005D16C093611681E08093EA380C94952EA2
:1048E000313019F488E28093EA38213011F00C94C9
:1048F000952E87E28093EA380C94952E213029F486
:1049000088E28093EA380C94952E8091EA3880935F
:104910005D16C093611681E08093EA380C94952E61
:10492000313019F48AE28093EA38213011F00C9486
:10493000952E89E28093EA380C94952E213029F443
:104940008AE28093EA380C94952E8091EA3880931D
:104950005D16C093611681E08093EA380C94952E21
:10496000313019F48CE28093EA38213011F00C9444
:10497000952E8BE28093EA380C94952E213029F401
:104980008CE28093EA380C94952E8091EA388093DB
:104990005D16C093611681E08093EA380C94952EE1
:1049A000313019F48EE28093EA38213011F00C9402
:1049B000952E8DE28093EA380C94952E213029F4BF
:1049C0008EE28093EA380C94952E8091EA38809399
:1049D0005D16C093611681E08093EA380C94952EA1
:1049E000313019F480E38093EA38213011F00C94CF
:1049F000952E8FE28093EA380C94952E213029F47D
:104A000080E38093EA380C94952E8091EA38809365
:104A10005D16C093611681E08093EA380C94952E60
:104A2000313019F482E38093EA38213011F00C948C
:104A3000952E81E38093EA380C94952E213029F449
:104A400082E38093EA380C94952E8091EA38809323
:104A50005D16C093611681E08093EA380C94952E20
:104A6000313019F484E38093EA38213011F00C944A
:104A7000952E83E38093EA380C94952E213029F407
:104A800084E38093EA380C94952E8091EA388093E1
:104A90005D16C093611681E08093EA380C94952EE0
:104AA000313019F486E38093EA38213011F00C9408
:104AB000952E85E38093EA380C94952E213029F4C5
:104AC00086E38093EA380C94952E8091EA3880939F
:104AD0005D16C093611681E08093EA380C94952EA0
:104AE000313019F488E38093EA38213011F00C94C6
:104AF000952E87E38093EA380C94952E213029F483
:104B000088E38093EA380C94952E8091EA3880935C
:104B10005D16C093611681E08093EA380C94952E5F
:104B20003130A9F480914C1C90914D1CA0914E1CE9
:104B3000B0914F1C80934C1C90934D1CA0934E1C25
:104B4000B0934F1C8AE38093EA380C94952E213061
:104B5000B1F480914C1C90914D1CA0914E1CB091D1
:104B60004F1CB06880934C1C90934D1CA0934E1C1E
:104B7000B0934F1C89E38093EA380C94952E809172
:104B8000EA3880935D16C093611681E08093EA381D
:104B90000C94952E213029F48AE38093EA380C9402
:104BA000952E8091EA3880935D16C093611681E05E
:104BB0008093EA380C94952E3130A9F480914C1CE6
:104BC00090914D1CA0914E1CB0914F1C80934C1C99
:104BD00090934D1CA0934E1CB0934F1C8CE380937C
:104BE000EA380C94952E2130B1F480914C1C9091B0
:104BF0004D1CA0914E1CB0914F1CB06480934C1C76
:104C000090934D1CA0934E1CB0934F1C8BE380934C
:104C1000EA380C94952E8091EA3880935D16C09303
:104C2000611681E08093EA380C94952E213029F4A6
:104C30008CE38093EA380C94952E8091EA38809327
:104C40005D16C093611681E08093EA380C94952E2E
:104C50003130A9F480914C1C90914D1CA0914E1CB8
:104C6000B0914F1C80934C1C90934D1CA0934E1CF4
:104C7000B0934F1C8EE38093EA380C94952E21302C
:104C8000B1F480914C1C90914D1CA0914E1CB091A0
:104C90004F1CB06280934C1C90934D1CA0934E1CF3
:104CA000B0934F1C8DE38093EA380C94952E80913D
:104CB000EA3880935D16C093611681E08093EA38EC
:104CC0000C94952E213029F48EE38093EA380C94CD
:104CD000952E8091EA3880935D16C093611681E02D
:104CE0008093EA380C94952E3130A9F480914C1CB5
:104CF00090914D1CA0914E1CB0914F1C80934C1C68
:104D000090934D1CA0934E1CB0934F1C80E4809355
:104D1000EA380C94952E2130A9F480914C1C909186
:104D20004D1CA0914E1CB0914F1CB06180934C1C47
:104D300090934D1CA0934E1CB0934F1C8FE3809317
:104D4000EA38F3C78091EA3880935D16C093611604
:104D500081E08093EA38E9C7213021F480E4809330
:104D6000EA38E3C78091EA3880935D16C0936116F4
:104D700081E08093EA38D9C73130A1F480914C1C8E
:104D800090914D1CA0914E1CB0914F1C80934C1CD7
:104D900090934D1CA0934E1CB0934F1C82E48093C3
:104DA000EA38C3C72130A9F480914C1C90914D1C66
:104DB000A0914E1CB0914F1CB86080934C1C9093F6
:104DC0004D1CA0934E1CB0934F1C81E48093EA3895
:104DD000ACC78091EA3880935D16C093611681E07C
:104DE0008093EA38A2C7213021F482E48093EA3824
:104DF0009CC78091EA3880935D16C093611681E06C
:104E00008093EA3892C73130A1F480914C1C909184
:104E10004D1CA0914E1CB0914F1C80934C1C909344
:104E20004D1CA0934E1CB0934F1C84E48093EA3831
:104E30007CC72130A9F480914C1C90914D1CA0910D
:104E40004E1CB0914F1CB46080934C1C90934D1C31
:104E5000A0934E1CB0934F1C83E48093EA3865C73F
:104E60008091EA3880935D16C093611681E080934B
:104E7000EA385BC7213021F484E48093EA3855C7CF
:104E80008091EA3880935D16C093611681E080932B
:104E9000EA384BC73130A1F480914C1C90914D1CE5
:104EA000A0914E1CB0914F1C80934C1C90934D1CB4
:104EB000A0934E1CB0934F1C86E48093EA3835C70C
:104EC0002130A9F480914C1C90914D1CA0914E1C56
:104ED000B0914F1CB26080934C1C90934D1CA093DA
:104EE0004E1CB0934F1C85E48093EA381EC7809116
:104EF000EA3880935D16C093611681E08093EA38AA
:104F000014C7213021F486E48093EA380EC78091DB
:104F1000EA3880935D16C093611681E08093EA3889
:104F200004C73130A1F480914C1C90914D1CA0918C
:104F30004E1CB0914F1C80934C1C90934D1CA09321
:104F40004E1CB0934F1C88E48093EA38EEC62130A3
:104F5000A9F480914C1C90914D1CA0914E1CB091D5
:104F60004F1CB16080934C1C90934D1CA0934E1C21
:104F7000B0934F1C87E48093EA38D7C68091EA3813
:104F800080935D16C093611681E08093EA38CDC6A8
:104F9000213021F488E48093EA38C7C68091EA384A
:104FA00080935D16C093611681E08093EA38BDC698
:104FB0003130A1F480914C1C90914D1CA0914E1C5D
:104FC000B0914F1C80934C1C90934D1CA0934E1C91
:104FD000B0934F1C8AE48093EA38A7C62130A9F425
:104FE00080914C1C90914D1CA0914E1CB0914F1C77
:104FF000A06880934C1C90934D1CA0934E1CB093C2
:105000004F1C89E48093EA3890C68091EA388093F7
:105010005D16C093611681E08093EA3886C6213020
:1050200021F48AE48093EA3880C68091EA3880933C
:105030005D16C093611681E08093EA3876C6313000
:10504000A1F480914C1C90914D1CA0914E1CB091EC
:105050004F1C80934C1C90934D1CA0934E1CB093FE
:105060004F1C8CE48093EA3860C62130A9F480910B
:105070004C1C90914D1CA0914E1CB0914F1CA064F3
:1050800080934C1C90934D1CA0934E1CB0934F1CCE
:105090008BE48093EA3849C68091EA3880935D16A4
:1050A000C093611681E08093EA383FC6213021F435
:1050B0008CE48093EA3839C68091EA3880935D1693
:1050C000C093611681E08093EA382FC63130A1F495
:1050D00080914C1C90914D1CA0914E1CB0914F1C86
:1050E00080934C1C90934D1CA0934E1CB0934F1C6E
:1050F0008EE48093EA3819C62130A9F480914C1CC3
:1051000090914D1CA0914E1CB0914F1CA0628093B9
:105110004C1C90934D1CA0934E1CB0934F1C8DE4DF
:105120008093EA3802C68091EA3880935D16C09376
:10513000611681E08093EA38F8C5213021F48EE4CD
:105140008093EA38F2C58091EA3880935D16C09367
:10515000611681E08093EA38E8C53130A1F480918E
:105160004C1C90914D1CA0914E1CB0914F1C8093F3
:105170004C1C90934D1CA0934E1CB0934F1C80E58B
:105180008093EA38D2C52130A9F480914C1C9091CB
:105190004D1CA0914E1CB0914F1CA06180934C1CE3
:1051A00090934D1CA0934E1CB0934F1C8FE48093A2
:1051B000EA38BBC58091EA3880935D16C0936116CA
:1051C00081E08093EA38B1C5213021F480E58093F5
:1051D000EA38ABC58091EA3880935D16C0936116BA
:1051E00081E08093EA38A1C53130A1F480914C1C54
:1051F00090914D1CA0914E1CB0914F1C80934C1C63
:1052000090934D1CA0934E1CB0934F1C82E580934D
:10521000EA388BC52130A9F480914C1C90914D1C2B
:10522000A0914E1CB0914F1CA86080934C1C909391
:105230004D1CA0934E1CB0934F1C81E58093EA381F
:1052400074C58091EA3880935D16C093611681E041
:105250008093EA386AC5213021F482E58093EA38E8
:1052600064C58091EA3880935D16C093611681E031
:105270008093EA385AC53130A1F480914C1C90914A
:105280004D1CA0914E1CB0914F1C80934C1C9093D0
:105290004D1CA0934E1CB0934F1C84E58093EA38BC
:1052A00044C52130A9F480914C1C90914D1CA091D3
:1052B0004E1CB0914F1CA46080934C1C90934D1CCD
:1052C000A0934E1CB0934F1C83E58093EA382DC504
:1052D0008091EA3880935D16C093611681E08093D7
:1052E000EA3823C5213021F484E58093EA381DC5CE
:1052F0008091EA3880935D16C093611681E08093B7
:10530000EA3813C53130A1F480914C1C90914D1CAA
:10531000A0914E1CB0914F1C80934C1C90934D1C3F
:10532000A0934E1CB0934F1C86E58093EA38FDC4D1
:105330002130A9F480914C1C90914D1CA0914E1CE1
:10534000B0914F1CA26080934C1C90934D1CA09375
:105350004E1CB0934F1C85E58093EA38E6C48091DB
:10536000EA3880935D16C093611681E08093EA3835
:10537000DCC4213021F486E58093EA38D6C48091DC
:10538000EA3880935D16C093611681E08093EA3815
:10539000CCC43130A1F480914C1C90914D1CA09153
:1053A0004E1CB0914F1C80934C1C90934D1CA093AD
:1053B0004E1CB0934F1C88E58093EA38B6C4213068
:1053C000A9F480914C1C90914D1CA0914E1CB09161
:1053D0004F1CA16080934C1C90934D1CA0934E1CBD
:1053E000B0934F1C87E58093EA389FC48091EA38D8
:1053F00080935D16C093611681E08093EA3895C46E
:10540000213021F488E58093EA388FC48091EA380E
:1054100080935D16C093611681E08093EA3885C45D
:105420003130A1F480914C1C90914D1CA0914E1CE8
:10543000B0914F1C80934C1C90934D1CA0934E1C1C
:10544000B0934F1C8AE58093EA386FC42130A9F4E9
:1054500080914C1C90914D1CA0914E1CB0914F1C02
:10546000906880934C1C90934D1CA0934E1CB0935D
:105470004F1C89E58093EA3858C48091EA388093BC
:105480005D16C093611681E08093EA384EC42130E6
:1054900021F48AE58093EA3848C48091EA38809301
:1054A0005D16C093611681E08093EA383EC43130C6
:1054B000A1F480914C1C90914D1CA0914E1CB09178
:1054C0004F1C80934C1C90934D1CA0934E1CB0938A
:1054D0004F1C8CE58093EA3828C42130A9F48091D0
:1054E0004C1C90914D1CA0914E1CB0914F1C90648F
:1054F00080934C1C90934D1CA0934E1CB0934F1C5A
:105500008BE58093EA3811C48091EA3880935D1668
:10551000C093611681E08093EA3807C4213021F4FA
:105520008CE58093EA3801C48091EA3880935D1657
:10553000C093611681E08093EA38F7C33130A1F45B
:1055400080914C1C90914D1CA0914E1CB0914F1C11
:1055500080934C1C90934D1CA0934E1CB0934F1CF9
:105560008EE58093EA38E1C32130A9F480914C1C88
:1055700090914D1CA0914E1CB0914F1C9062809355
:105580004C1C90934D1CA0934E1CB0934F1C8DE56A
:105590008093EA38CAC38091EA3880935D16C0933D
:1055A000611681E08093EA38C0C3213021F48EE592
:1055B0008093EA38BAC38091EA3880935D16C0932D
:1055C000611681E08093EA38B0C33130A1F4809154
:1055D0004C1C90914D1CA0914E1CB0914F1C80937F
:1055E0004C1C90934D1CA0934E1CB0934F1C80E616
:1055F0008093EA389AC32130A9F480914C1C909191
:105600004D1CA0914E1CB0914F1C906180934C1C7E
:1056100090934D1CA0934E1CB0934F1C8FE580932C
:10562000EA3883C38091EA3880935D16C09361168F
:1056300081E08093EA3879C3213021F480E68093B9
:10564000EA3873C38091EA3880935D16C09361167F
:1056500081E08093EA3869C33130A1F480914C1C19
:1056600090914D1CA0914E1CB0914F1C80934C1CEE
:1056700090934D1CA0934E1CB0934F1C82E68093D8
:10568000EA3853C32130A9F480914C1C90914D1CF1
:10569000A0914E1CB0914F1C986080934C1C90932D
:1056A0004D1CA0934E1CB0934F1C81E68093EA38AA
:1056B0003CC38091EA3880935D16C093611681E007
:1056C0008093EA3832C3213021F482E68093EA38AD
:1056D0002CC38091EA3880935D16C093611681E0F7
:1056E0008093EA3822C33130A1F480914C1C909110
:1056F0004D1CA0914E1CB0914F1C80934C1C90935C
:105700004D1CA0934E1CB0934F1C84E68093EA3846
:105710000CC32130A9F480914C1C90914D1CA09198
:105720004E1CB0914F1C946080934C1C90934D1C68
:10573000A0934E1CB0934F1C83E68093EA38F5C2C9
:105740008091EA3880935D16C093611681E0809362
:10575000EA38EBC2213021F484E68093EA38E5C2CE
:105760008091EA3880935D16C093611681E0809342
:10577000EA38DBC23130A1F480914C1C90914D1C71
:10578000A0914E1CB0914F1C80934C1C90934D1CCB
:10579000A0934E1CB0934F1C86E68093EA38C5C296
:1057A0002130A9F480914C1C90914D1CA0914E1C6D
:1057B000B0914F1C926080934C1C90934D1CA09311
:1057C0004E1CB0934F1C85E68093EA38AEC28091A0
:1057D000EA3880935D16C093611681E08093EA38C1
:1057E000A4C2213021F486E68093EA389EC28091DB
:1057F000EA3880935D16C093611681E08093EA38A1
:1058000094C23130A1F480914C1C90914D1CA09118
:105810004E1CB0914F1C80934C1C90934D1CA09338
:105820004E1CB0934F1C88E68093EA387EC221302C
:10583000A9F480914C1C90914D1CA0914E1CB091EC
:105840004F1C916080934C1C90934D1CA0934E1C58
:10585000B0934F1C87E68093EA3867C28091EA389C
:1058600080935D16C093611681E08093EA385DC233
:10587000213021F488E68093EA3857C28091EA38D3
:1058800080935D16C093611681E08093EA384DC223
:105890003130A1F480914C1C90914D1CA0914E1C74
:1058A000B0914F1C80934C1C90934D1CA0934E1CA8
:1058B000B0934F1C8AE68093EA3837C22130A9F4AE
:1058C00080914C1C90914D1CA0914E1CB0914F1C8E
:1058D000806880934C1C90934D1CA0934E1CB093F9
:1058E0004F1C89E68093EA3820C28091EA38809381
:1058F0005D16C093611681E08093EA3816C22130AC
:1059000021F48AE68093EA3810C28091EA388093C5
:105910005D16C093611681E08093EA3806C231308B
:10592000A1F480914C1C90914D1CA0914E1CB09103
:105930004F1C80934C1C90934D1CA0934E1CB09315
:105940004F1C8CE68093EA38F0C12130A9F4809195
:105950004C1C90914D1CA0914E1CB0914F1C80642A
:1059600080934C1C90934D1CA0934E1CB0934F1CE5
:105970008BE68093EA38D9C18091EA3880935D162E
:10598000C093611681E08093EA38CFC1213021F4C1
:105990008CE68093EA38C9C18091EA3880935D161D
:1059A000C093611681E08093EA38BFC13130A1F421
:1059B00080914C1C90914D1CA0914E1CB0914F1C9D
:1059C00080934C1C90934D1CA0934E1CB0934F1C85
:1059D0008EE68093EA38A9C12130A9F480914C1C4D
:1059E00090914D1CA0914E1CB0914F1C80628093F1
:1059F0004C1C90934D1CA0934E1CB0934F1C8DE6F5
:105A00008093EA3892C18091EA3880935D16C09302
:105A1000611681E08093EA3888C1213021F48EE656
:105A20008093EA3882C18091EA3880935D16C093F2
:105A3000611681E08093EA3878C13130A1F4809119
:105A40004C1C90914D1CA0914E1CB0914F1C80930A
:105A50004C1C90934D1CA0934E1CB0934F1C80E7A0
:105A60008093EA3862C12130A9F480914C1C909156
:105A70004D1CA0914E1CB0914F1C806180934C1C1A
:105A800090934D1CA0934E1CB0934F1C8FE68093B7
:105A9000EA384BC18091EA3880935D16C093611655
:105AA00081E08093EA3841C1213021F480E780937E
:105AB000EA383BC18091EA3880935D16C093611645
:105AC00081E08093EA3831C13130A1F480914C1CDF
:105AD00090914D1CA0914E1CB0914F1C80934C1C7A
